{
  "contractName": "SmartContract",
  "abi": [
    {
      "inputs": [
        {
          "internalType": "string",
          "name": "_name",
          "type": "string"
        },
        {
          "internalType": "string",
          "name": "_symbol",
          "type": "string"
        },
        {
          "internalType": "string",
          "name": "_initBaseURI",
          "type": "string"
        },
        {
          "internalType": "string",
          "name": "_initNotRevealedUri",
          "type": "string"
        }
      ],
      "stateMutability": "nonpayable",
      "type": "constructor"
    },
    {
      "anonymous": false,
      "inputs": [
        {
          "indexed": true,
          "internalType": "address",
          "name": "owner",
          "type": "address"
        },
        {
          "indexed": true,
          "internalType": "address",
          "name": "approved",
          "type": "address"
        },
        {
          "indexed": true,
          "internalType": "uint256",
          "name": "tokenId",
          "type": "uint256"
        }
      ],
      "name": "Approval",
      "type": "event"
    },
    {
      "anonymous": false,
      "inputs": [
        {
          "indexed": true,
          "internalType": "address",
          "name": "owner",
          "type": "address"
        },
        {
          "indexed": true,
          "internalType": "address",
          "name": "operator",
          "type": "address"
        },
        {
          "indexed": false,
          "internalType": "bool",
          "name": "approved",
          "type": "bool"
        }
      ],
      "name": "ApprovalForAll",
      "type": "event"
    },
    {
      "anonymous": false,
      "inputs": [
        {
          "indexed": true,
          "internalType": "address",
          "name": "previousOwner",
          "type": "address"
        },
        {
          "indexed": true,
          "internalType": "address",
          "name": "newOwner",
          "type": "address"
        }
      ],
      "name": "OwnershipTransferred",
      "type": "event"
    },
    {
      "anonymous": false,
      "inputs": [
        {
          "indexed": true,
          "internalType": "address",
          "name": "from",
          "type": "address"
        },
        {
          "indexed": true,
          "internalType": "address",
          "name": "to",
          "type": "address"
        },
        {
          "indexed": true,
          "internalType": "uint256",
          "name": "tokenId",
          "type": "uint256"
        }
      ],
      "name": "Transfer",
      "type": "event"
    },
    {
      "inputs": [
        {
          "internalType": "address",
          "name": "",
          "type": "address"
        }
      ],
      "name": "addressMintedBalance",
      "outputs": [
        {
          "internalType": "uint256",
          "name": "",
          "type": "uint256"
        }
      ],
      "stateMutability": "view",
      "type": "function",
      "constant": true
    },
    {
      "inputs": [
        {
          "internalType": "address",
          "name": "to",
          "type": "address"
        },
        {
          "internalType": "uint256",
          "name": "tokenId",
          "type": "uint256"
        }
      ],
      "name": "approve",
      "outputs": [],
      "stateMutability": "nonpayable",
      "type": "function"
    },
    {
      "inputs": [
        {
          "internalType": "address",
          "name": "owner",
          "type": "address"
        }
      ],
      "name": "balanceOf",
      "outputs": [
        {
          "internalType": "uint256",
          "name": "",
          "type": "uint256"
        }
      ],
      "stateMutability": "view",
      "type": "function",
      "constant": true
    },
    {
      "inputs": [],
      "name": "baseExtension",
      "outputs": [
        {
          "internalType": "string",
          "name": "",
          "type": "string"
        }
      ],
      "stateMutability": "view",
      "type": "function",
      "constant": true
    },
    {
      "inputs": [],
      "name": "baseURI",
      "outputs": [
        {
          "internalType": "string",
          "name": "",
          "type": "string"
        }
      ],
      "stateMutability": "view",
      "type": "function",
      "constant": true
    },
    {
      "inputs": [],
      "name": "cost",
      "outputs": [
        {
          "internalType": "uint256",
          "name": "",
          "type": "uint256"
        }
      ],
      "stateMutability": "view",
      "type": "function",
      "constant": true
    },
    {
      "inputs": [
        {
          "internalType": "uint256",
          "name": "tokenId",
          "type": "uint256"
        }
      ],
      "name": "getApproved",
      "outputs": [
        {
          "internalType": "address",
          "name": "",
          "type": "address"
        }
      ],
      "stateMutability": "view",
      "type": "function",
      "constant": true
    },
    {
      "inputs": [
        {
          "internalType": "address",
          "name": "owner",
          "type": "address"
        },
        {
          "internalType": "address",
          "name": "operator",
          "type": "address"
        }
      ],
      "name": "isApprovedForAll",
      "outputs": [
        {
          "internalType": "bool",
          "name": "",
          "type": "bool"
        }
      ],
      "stateMutability": "view",
      "type": "function",
      "constant": true
    },
    {
      "inputs": [],
      "name": "maxMintAmount",
      "outputs": [
        {
          "internalType": "uint256",
          "name": "",
          "type": "uint256"
        }
      ],
      "stateMutability": "view",
      "type": "function",
      "constant": true
    },
    {
      "inputs": [],
      "name": "maxSupply",
      "outputs": [
        {
          "internalType": "uint256",
          "name": "",
          "type": "uint256"
        }
      ],
      "stateMutability": "view",
      "type": "function",
      "constant": true
    },
    {
      "inputs": [],
      "name": "name",
      "outputs": [
        {
          "internalType": "string",
          "name": "",
          "type": "string"
        }
      ],
      "stateMutability": "view",
      "type": "function",
      "constant": true
    },
    {
      "inputs": [],
      "name": "nftPerAddressLimit",
      "outputs": [
        {
          "internalType": "uint256",
          "name": "",
          "type": "uint256"
        }
      ],
      "stateMutability": "view",
      "type": "function",
      "constant": true
    },
    {
      "inputs": [],
      "name": "notRevealedUri",
      "outputs": [
        {
          "internalType": "string",
          "name": "",
          "type": "string"
        }
      ],
      "stateMutability": "view",
      "type": "function",
      "constant": true
    },
    {
      "inputs": [],
      "name": "onlyWhitelisted",
      "outputs": [
        {
          "internalType": "bool",
          "name": "",
          "type": "bool"
        }
      ],
      "stateMutability": "view",
      "type": "function",
      "constant": true
    },
    {
      "inputs": [],
      "name": "owner",
      "outputs": [
        {
          "internalType": "address",
          "name": "",
          "type": "address"
        }
      ],
      "stateMutability": "view",
      "type": "function",
      "constant": true
    },
    {
      "inputs": [
        {
          "internalType": "uint256",
          "name": "tokenId",
          "type": "uint256"
        }
      ],
      "name": "ownerOf",
      "outputs": [
        {
          "internalType": "address",
          "name": "",
          "type": "address"
        }
      ],
      "stateMutability": "view",
      "type": "function",
      "constant": true
    },
    {
      "inputs": [],
      "name": "paused",
      "outputs": [
        {
          "internalType": "bool",
          "name": "",
          "type": "bool"
        }
      ],
      "stateMutability": "view",
      "type": "function",
      "constant": true
    },
    {
      "inputs": [],
      "name": "renounceOwnership",
      "outputs": [],
      "stateMutability": "nonpayable",
      "type": "function"
    },
    {
      "inputs": [],
      "name": "revealed",
      "outputs": [
        {
          "internalType": "bool",
          "name": "",
          "type": "bool"
        }
      ],
      "stateMutability": "view",
      "type": "function",
      "constant": true
    },
    {
      "inputs": [
        {
          "internalType": "address",
          "name": "from",
          "type": "address"
        },
        {
          "internalType": "address",
          "name": "to",
          "type": "address"
        },
        {
          "internalType": "uint256",
          "name": "tokenId",
          "type": "uint256"
        }
      ],
      "name": "safeTransferFrom",
      "outputs": [],
      "stateMutability": "nonpayable",
      "type": "function"
    },
    {
      "inputs": [
        {
          "internalType": "address",
          "name": "from",
          "type": "address"
        },
        {
          "internalType": "address",
          "name": "to",
          "type": "address"
        },
        {
          "internalType": "uint256",
          "name": "tokenId",
          "type": "uint256"
        },
        {
          "internalType": "bytes",
          "name": "_data",
          "type": "bytes"
        }
      ],
      "name": "safeTransferFrom",
      "outputs": [],
      "stateMutability": "nonpayable",
      "type": "function"
    },
    {
      "inputs": [
        {
          "internalType": "address",
          "name": "operator",
          "type": "address"
        },
        {
          "internalType": "bool",
          "name": "approved",
          "type": "bool"
        }
      ],
      "name": "setApprovalForAll",
      "outputs": [],
      "stateMutability": "nonpayable",
      "type": "function"
    },
    {
      "inputs": [
        {
          "internalType": "bytes4",
          "name": "interfaceId",
          "type": "bytes4"
        }
      ],
      "name": "supportsInterface",
      "outputs": [
        {
          "internalType": "bool",
          "name": "",
          "type": "bool"
        }
      ],
      "stateMutability": "view",
      "type": "function",
      "constant": true
    },
    {
      "inputs": [],
      "name": "symbol",
      "outputs": [
        {
          "internalType": "string",
          "name": "",
          "type": "string"
        }
      ],
      "stateMutability": "view",
      "type": "function",
      "constant": true
    },
    {
      "inputs": [
        {
          "internalType": "uint256",
          "name": "index",
          "type": "uint256"
        }
      ],
      "name": "tokenByIndex",
      "outputs": [
        {
          "internalType": "uint256",
          "name": "",
          "type": "uint256"
        }
      ],
      "stateMutability": "view",
      "type": "function",
      "constant": true
    },
    {
      "inputs": [
        {
          "internalType": "address",
          "name": "owner",
          "type": "address"
        },
        {
          "internalType": "uint256",
          "name": "index",
          "type": "uint256"
        }
      ],
      "name": "tokenOfOwnerByIndex",
      "outputs": [
        {
          "internalType": "uint256",
          "name": "",
          "type": "uint256"
        }
      ],
      "stateMutability": "view",
      "type": "function",
      "constant": true
    },
    {
      "inputs": [],
      "name": "totalSupply",
      "outputs": [
        {
          "internalType": "uint256",
          "name": "",
          "type": "uint256"
        }
      ],
      "stateMutability": "view",
      "type": "function",
      "constant": true
    },
    {
      "inputs": [
        {
          "internalType": "address",
          "name": "from",
          "type": "address"
        },
        {
          "internalType": "address",
          "name": "to",
          "type": "address"
        },
        {
          "internalType": "uint256",
          "name": "tokenId",
          "type": "uint256"
        }
      ],
      "name": "transferFrom",
      "outputs": [],
      "stateMutability": "nonpayable",
      "type": "function"
    },
    {
      "inputs": [
        {
          "internalType": "address",
          "name": "newOwner",
          "type": "address"
        }
      ],
      "name": "transferOwnership",
      "outputs": [],
      "stateMutability": "nonpayable",
      "type": "function"
    },
    {
      "inputs": [
        {
          "internalType": "uint256",
          "name": "",
          "type": "uint256"
        }
      ],
      "name": "vipAddresses",
      "outputs": [
        {
          "internalType": "address",
          "name": "",
          "type": "address"
        }
      ],
      "stateMutability": "view",
      "type": "function",
      "constant": true
    },
    {
      "inputs": [
        {
          "internalType": "uint256",
          "name": "",
          "type": "uint256"
        }
      ],
      "name": "vipMaxMinted",
      "outputs": [
        {
          "internalType": "uint256",
          "name": "",
          "type": "uint256"
        }
      ],
      "stateMutability": "view",
      "type": "function",
      "constant": true
    },
    {
      "inputs": [
        {
          "internalType": "uint256",
          "name": "",
          "type": "uint256"
        }
      ],
      "name": "whitelistedAddresses",
      "outputs": [
        {
          "internalType": "address",
          "name": "",
          "type": "address"
        }
      ],
      "stateMutability": "view",
      "type": "function",
      "constant": true
    },
    {
      "inputs": [
        {
          "internalType": "uint256",
          "name": "_mintAmount",
          "type": "uint256"
        }
      ],
      "name": "mint",
      "outputs": [],
      "stateMutability": "payable",
      "type": "function",
      "payable": true
    },
    {
      "inputs": [
        {
          "internalType": "address",
          "name": "_user",
          "type": "address"
        }
      ],
      "name": "qtyLeftForVIP",
      "outputs": [
        {
          "internalType": "uint256",
          "name": "",
          "type": "uint256"
        }
      ],
      "stateMutability": "view",
      "type": "function",
      "constant": true
    },
    {
      "inputs": [
        {
          "internalType": "address",
          "name": "_user",
          "type": "address"
        }
      ],
      "name": "qtyLeftForUser",
      "outputs": [
        {
          "internalType": "uint256",
          "name": "",
          "type": "uint256"
        }
      ],
      "stateMutability": "view",
      "type": "function",
      "constant": true
    },
    {
      "inputs": [
        {
          "internalType": "address",
          "name": "_user",
          "type": "address"
        }
      ],
      "name": "isWhitelisted",
      "outputs": [
        {
          "internalType": "bool",
          "name": "",
          "type": "bool"
        }
      ],
      "stateMutability": "view",
      "type": "function",
      "constant": true
    },
    {
      "inputs": [
        {
          "internalType": "address",
          "name": "_user",
          "type": "address"
        }
      ],
      "name": "isVIP",
      "outputs": [
        {
          "internalType": "bool",
          "name": "",
          "type": "bool"
        }
      ],
      "stateMutability": "view",
      "type": "function",
      "constant": true
    },
    {
      "inputs": [
        {
          "internalType": "address",
          "name": "_user",
          "type": "address"
        }
      ],
      "name": "vipMintAmount",
      "outputs": [
        {
          "internalType": "uint256",
          "name": "",
          "type": "uint256"
        }
      ],
      "stateMutability": "view",
      "type": "function",
      "constant": true
    },
    {
      "inputs": [
        {
          "internalType": "address",
          "name": "_owner",
          "type": "address"
        }
      ],
      "name": "walletOfOwner",
      "outputs": [
        {
          "internalType": "uint256[]",
          "name": "",
          "type": "uint256[]"
        }
      ],
      "stateMutability": "view",
      "type": "function",
      "constant": true
    },
    {
      "inputs": [
        {
          "internalType": "uint256",
          "name": "tokenId",
          "type": "uint256"
        }
      ],
      "name": "tokenURI",
      "outputs": [
        {
          "internalType": "string",
          "name": "",
          "type": "string"
        }
      ],
      "stateMutability": "view",
      "type": "function",
      "constant": true
    },
    {
      "inputs": [],
      "name": "reveal",
      "outputs": [],
      "stateMutability": "nonpayable",
      "type": "function"
    },
    {
      "inputs": [
        {
          "internalType": "uint256",
          "name": "_limit",
          "type": "uint256"
        }
      ],
      "name": "setNftPerAddressLimit",
      "outputs": [],
      "stateMutability": "nonpayable",
      "type": "function"
    },
    {
      "inputs": [
        {
          "internalType": "uint256",
          "name": "_newCost",
          "type": "uint256"
        }
      ],
      "name": "setCost",
      "outputs": [],
      "stateMutability": "nonpayable",
      "type": "function"
    },
    {
      "inputs": [
        {
          "internalType": "uint256",
          "name": "_newmaxMintAmount",
          "type": "uint256"
        }
      ],
      "name": "setmaxMintAmount",
      "outputs": [],
      "stateMutability": "nonpayable",
      "type": "function"
    },
    {
      "inputs": [
        {
          "internalType": "string",
          "name": "_newBaseURI",
          "type": "string"
        }
      ],
      "name": "setBaseURI",
      "outputs": [],
      "stateMutability": "nonpayable",
      "type": "function"
    },
    {
      "inputs": [
        {
          "internalType": "string",
          "name": "_newBaseExtension",
          "type": "string"
        }
      ],
      "name": "setBaseExtension",
      "outputs": [],
      "stateMutability": "nonpayable",
      "type": "function"
    },
    {
      "inputs": [
        {
          "internalType": "string",
          "name": "_notRevealedURI",
          "type": "string"
        }
      ],
      "name": "setNotRevealedURI",
      "outputs": [],
      "stateMutability": "nonpayable",
      "type": "function"
    },
    {
      "inputs": [
        {
          "internalType": "bool",
          "name": "_state",
          "type": "bool"
        }
      ],
      "name": "pause",
      "outputs": [],
      "stateMutability": "nonpayable",
      "type": "function"
    },
    {
      "inputs": [
        {
          "internalType": "bool",
          "name": "_state",
          "type": "bool"
        }
      ],
      "name": "setOnlyWhitelisted",
      "outputs": [],
      "stateMutability": "nonpayable",
      "type": "function"
    },
    {
      "inputs": [
        {
          "internalType": "address[]",
          "name": "_users",
          "type": "address[]"
        }
      ],
      "name": "whitelistUsers",
      "outputs": [],
      "stateMutability": "nonpayable",
      "type": "function"
    },
    {
      "inputs": [
        {
          "internalType": "address[]",
          "name": "_users",
          "type": "address[]"
        }
      ],
      "name": "vipUsers",
      "outputs": [],
      "stateMutability": "nonpayable",
      "type": "function"
    },
    {
      "inputs": [
        {
          "internalType": "uint256[]",
          "name": "_numberofmints",
          "type": "uint256[]"
        }
      ],
      "name": "vipUsersMaxMint",
      "outputs": [],
      "stateMutability": "nonpayable",
      "type": "function"
    },
    {
      "inputs": [],
      "name": "withdraw",
      "outputs": [],
      "stateMutability": "payable",
      "type": "function",
      "payable": true
    }
  ],
  "bytecode": "0x60c06040526005608081905264173539b7b760d91b60a09081526200002891600c919062000219565b5066f5232269808000600e5561270f600f55601460108190556011556012805462ffffff1916620100001790553480156200006257600080fd5b50604051620036633803806200366383398101604081905262000085916200036a565b8351849084906200009e90600090602085019062000219565b508051620000b490600190602084019062000219565b505050620000d1620000cb620000f160201b60201c565b620000f5565b620000dc8262000147565b620000e781620001af565b50505050620004a6565b3390565b600a80546001600160a01b038381166001600160a01b0319831681179093556040519116919082907f8be0079c531659141344cd1fd0a4f28419497f9722a3daafe3b4186f6b6457e090600090a35050565b62000151620000f1565b6001600160a01b0316620001646200020a565b6001600160a01b031614620001965760405162461bcd60e51b81526004016200018d906200041e565b60405180910390fd5b8051620001ab90600b90602084019062000219565b5050565b620001b9620000f1565b6001600160a01b0316620001cc6200020a565b6001600160a01b031614620001f55760405162461bcd60e51b81526004016200018d906200041e565b8051620001ab90600d90602084019062000219565b600a546001600160a01b031690565b828054620002279062000453565b90600052602060002090601f0160209004810192826200024b576000855562000296565b82601f106200026657805160ff191683800117855562000296565b8280016001018555821562000296579182015b828111156200029657825182559160200191906001019062000279565b50620002a4929150620002a8565b5090565b5b80821115620002a45760008155600101620002a9565b600082601f830112620002d0578081fd5b81516001600160401b0380821115620002ed57620002ed62000490565b6040516020601f8401601f191682018101838111838210171562000315576200031562000490565b60405283825285840181018710156200032c578485fd5b8492505b838310156200034f578583018101518284018201529182019162000330565b838311156200036057848185840101525b5095945050505050565b6000806000806080858703121562000380578384fd5b84516001600160401b038082111562000397578586fd5b620003a588838901620002bf565b95506020870151915080821115620003bb578485fd5b620003c988838901620002bf565b94506040870151915080821115620003df578384fd5b620003ed88838901620002bf565b9350606087015191508082111562000403578283fd5b506200041287828801620002bf565b91505092959194509250565b6020808252818101527f4f776e61626c653a2063616c6c6572206973206e6f7420746865206f776e6572604082015260600190565b6002810460018216806200046857607f821691505b602082108114156200048a57634e487b7160e01b600052602260045260246000fd5b50919050565b634e487b7160e01b600052604160045260246000fd5b6131ad80620004b66000396000f3fe60806040526004361061031a5760003560e01c80636352211e116101ab578063ba7d2c76116100f7578063e7a971d411610095578063eea8a0ed1161006f578063eea8a0ed146108b6578063f2c4ce1e146108d6578063f2fde38b146108f6578063f4201c3c146109165761031a565b8063e7a971d414610856578063e985e9c514610876578063edec5f27146108965761031a565b8063ce357e6d116100d1578063ce357e6d146107e1578063d0eb26b014610801578063d5abeb0114610821578063da3ef23f146108365761031a565b8063ba7d2c7614610797578063c6682862146107ac578063c87b56dd146107c15761031a565b806395d89b4111610164578063a22cb4651161013e578063a22cb46514610722578063a475b5dd14610742578063b88d4fde14610757578063ba4e5c49146107775761031a565b806395d89b41146106e55780639c70b512146106fa578063a0712d681461070f5761031a565b80636352211e146106465780636c0360eb1461066657806370a082311461067b578063715018a61461069b5780637f00c7a6146106b05780638da5cb5b146106d05761031a565b8063324ce95c1161026a57806344a0d68a1161022357806351830227116101fd57806351830227146105dc57806355f804b3146105f15780635c975abb146106115780636045051a146106265761031a565b806344a0d68a1461057c57806348d396981461059c5780634f6ccce7146105bc5761031a565b8063324ce95c146104c75780633af32abf146104e75780633c952764146105075780633ccfd60b1461052757806342842e0e1461052f578063438b63001461054f5761031a565b806313faede6116102d7578063239c70ae116102b1578063239c70ae1461045257806323b872dd1461046757806329080d46146104875780632f745c59146104a75761031a565b806313faede6146103fb57806318160ddd1461041d57806318cae269146104325761031a565b806301ffc9a71461031f57806302329a291461035557806306fdde0314610377578063081812fc14610399578063081c8c44146103c6578063095ea7b3146103db575b600080fd5b34801561032b57600080fd5b5061033f61033a366004612766565b610936565b60405161034c9190612982565b60405180910390f35b34801561036157600080fd5b5061037561037036600461274c565b610963565b005b34801561038357600080fd5b5061038c6109be565b60405161034c919061298d565b3480156103a557600080fd5b506103b96103b43660046127e4565b610a50565b60405161034c91906128ed565b3480156103d257600080fd5b5061038c610a93565b3480156103e757600080fd5b506103756103f63660046126e3565b610b21565b34801561040757600080fd5b50610410610bb9565b60405161034c9190613012565b34801561042957600080fd5b50610410610bbf565b34801561043e57600080fd5b5061041061044d3660046125ba565b610bc5565b34801561045e57600080fd5b50610410610bd7565b34801561047357600080fd5b50610375610482366004612606565b610bdd565b34801561049357600080fd5b506104106104a23660046127e4565b610c15565b3480156104b357600080fd5b506104106104c23660046126e3565b610c36565b3480156104d357600080fd5b506103756104e236600461270c565b610c88565b3480156104f357600080fd5b5061033f6105023660046125ba565b610cdf565b34801561051357600080fd5b5061037561052236600461274c565b610dc8565b610375610e23565b34801561053b57600080fd5b5061037561054a366004612606565b610ece565b34801561055b57600080fd5b5061056f61056a3660046125ba565b610ee9565b60405161034c919061293e565b34801561058857600080fd5b506103756105973660046127e4565b610fa7565b3480156105a857600080fd5b506104106105b73660046125ba565b610feb565b3480156105c857600080fd5b506104106105d73660046127e4565b61101c565b3480156105e857600080fd5b5061033f611077565b3480156105fd57600080fd5b5061037561060c36600461279e565b611085565b34801561061d57600080fd5b5061033f6110db565b34801561063257600080fd5b506103b96106413660046127e4565b6110e4565b34801561065257600080fd5b506103b96106613660046127e4565b61110e565b34801561067257600080fd5b5061038c611143565b34801561068757600080fd5b506104106106963660046125ba565b611150565b3480156106a757600080fd5b50610375611194565b3480156106bc57600080fd5b506103756106cb3660046127e4565b6111df565b3480156106dc57600080fd5b506103b9611223565b3480156106f157600080fd5b5061038c611232565b34801561070657600080fd5b5061033f611241565b61037561071d3660046127e4565b611250565b34801561072e57600080fd5b5061037561073d3660046126ba565b61145d565b34801561074e57600080fd5b5061037561152b565b34801561076357600080fd5b50610375610772366004612641565b61157b565b34801561078357600080fd5b506103b96107923660046127e4565b6115ba565b3480156107a357600080fd5b506104106115ca565b3480156107b857600080fd5b5061038c6115d0565b3480156107cd57600080fd5b5061038c6107dc3660046127e4565b6115dd565b3480156107ed57600080fd5b506104106107fc3660046125ba565b611704565b34801561080d57600080fd5b5061037561081c3660046127e4565b61179e565b34801561082d57600080fd5b506104106117e2565b34801561084257600080fd5b5061037561085136600461279e565b6117e8565b34801561086257600080fd5b506104106108713660046125ba565b61183a565b34801561088257600080fd5b5061033f6108913660046125d4565b611874565b3480156108a257600080fd5b506103756108b136600461270c565b6118a2565b3480156108c257600080fd5b506103756108d136600461270c565b6118f9565b3480156108e257600080fd5b506103756108f136600461279e565b611950565b34801561090257600080fd5b506103756109113660046125ba565b6119a2565b34801561092257600080fd5b5061033f6109313660046125ba565b611a10565b60006001600160e01b0319821663780e9d6360e01b148061095b575061095b82611a80565b90505b919050565b61096b611ac0565b6001600160a01b031661097c611223565b6001600160a01b0316146109ab5760405162461bcd60e51b81526004016109a290612d9d565b60405180910390fd5b6012805460ff1916911515919091179055565b6060600080546109cd906130b5565b80601f01602080910402602001604051908101604052809291908181526020018280546109f9906130b5565b8015610a465780601f10610a1b57610100808354040283529160200191610a46565b820191906000526020600020905b815481529060010190602001808311610a2957829003601f168201915b5050505050905090565b6000610a5b82611ac4565b610a775760405162461bcd60e51b81526004016109a290612d51565b506000908152600460205260409020546001600160a01b031690565b600d8054610aa0906130b5565b80601f0160208091040260200160405190810160405280929190818152602001828054610acc906130b5565b8015610b195780601f10610aee57610100808354040283529160200191610b19565b820191906000526020600020905b815481529060010190602001808311610afc57829003601f168201915b505050505081565b6000610b2c8261110e565b9050806001600160a01b0316836001600160a01b03161415610b605760405162461bcd60e51b81526004016109a290612e9a565b806001600160a01b0316610b72611ac0565b6001600160a01b03161480610b8e5750610b8e81610891611ac0565b610baa5760405162461bcd60e51b81526004016109a290612bb8565b610bb48383611ae1565b505050565b600e5481565b60085490565b60166020526000908152604090205481565b60105481565b610bee610be8611ac0565b82611b4f565b610c0a5760405162461bcd60e51b81526004016109a290612f07565b610bb4838383611bcc565b60158181548110610c2557600080fd5b600091825260209091200154905081565b6000610c4183611150565b8210610c5f5760405162461bcd60e51b81526004016109a2906129a0565b506001600160a01b03919091166000908152600660209081526040808320938352929052205490565b610c90611ac0565b6001600160a01b0316610ca1611223565b6001600160a01b031614610cc75760405162461bcd60e51b81526004016109a290612d9d565b610cd360156000612395565b610bb4601583836123b3565b6000805b601354811015610d4f57826001600160a01b031660138281548110610d1857634e487b7160e01b600052603260045260246000fd5b6000918252602090912001546001600160a01b03161415610d3d57600191505061095e565b80610d47816130f0565b915050610ce3565b5060005b601454811015610dbf57826001600160a01b031660148281548110610d8857634e487b7160e01b600052603260045260246000fd5b6000918252602090912001546001600160a01b03161415610dad57600191505061095e565b80610db7816130f0565b915050610d53565b50600092915050565b610dd0611ac0565b6001600160a01b0316610de1611223565b6001600160a01b031614610e075760405162461bcd60e51b81526004016109a290612d9d565b60128054911515620100000262ff000019909216919091179055565b610e2b611ac0565b6001600160a01b0316610e3c611223565b6001600160a01b031614610e625760405162461bcd60e51b81526004016109a290612d9d565b6000336001600160a01b031647604051610e7b906128ea565b60006040518083038185875af1925050503d8060008114610eb8576040519150601f19603f3d011682016040523d82523d6000602084013e610ebd565b606091505b5050905080610ecb57600080fd5b50565b610bb48383836040518060200160405280600081525061157b565b60606000610ef683611150565b905060008167ffffffffffffffff811115610f2157634e487b7160e01b600052604160045260246000fd5b604051908082528060200260200182016040528015610f4a578160200160208202803683370190505b50905060005b82811015610f9f57610f628582610c36565b828281518110610f8257634e487b7160e01b600052603260045260246000fd5b602090810291909101015280610f97816130f0565b915050610f50565b509392505050565b610faf611ac0565b6001600160a01b0316610fc0611223565b6001600160a01b031614610fe65760405162461bcd60e51b81526004016109a290612d9d565b600e55565b6001600160a01b0381166000908152601660205260408120546011548290611014908390613072565b949350505050565b6000611026610bbf565b82106110445760405162461bcd60e51b81526004016109a290612f58565b6008828154811061106557634e487b7160e01b600052603260045260246000fd5b90600052602060002001549050919050565b601254610100900460ff1681565b61108d611ac0565b6001600160a01b031661109e611223565b6001600160a01b0316146110c45760405162461bcd60e51b81526004016109a290612d9d565b80516110d790600b9060208401906123fe565b5050565b60125460ff1681565b601481815481106110f457600080fd5b6000918252602090912001546001600160a01b0316905081565b6000818152600260205260408120546001600160a01b03168061095b5760405162461bcd60e51b81526004016109a290612c5f565b600b8054610aa0906130b5565b60006001600160a01b0382166111785760405162461bcd60e51b81526004016109a290612c15565b506001600160a01b031660009081526003602052604090205490565b61119c611ac0565b6001600160a01b03166111ad611223565b6001600160a01b0316146111d35760405162461bcd60e51b81526004016109a290612d9d565b6111dd6000611cf9565b565b6111e7611ac0565b6001600160a01b03166111f8611223565b6001600160a01b03161461121e5760405162461bcd60e51b81526004016109a290612d9d565b601055565b600a546001600160a01b031690565b6060600180546109cd906130b5565b60125462010000900460ff1681565b60125460ff16156112735760405162461bcd60e51b81526004016109a290612dd2565b600061127d610bbf565b90506000821161129f5760405162461bcd60e51b81526004016109a290612fdb565b6010548211156112c15760405162461bcd60e51b81526004016109a290612cd8565b600f546112ce8383613027565b11156112ec5760405162461bcd60e51b81526004016109a290612ca8565b6112f4611223565b6001600160a01b0316336001600160a01b03161461140d5760125462010000900460ff161515600114156113845761132b33610cdf565b6113475760405162461bcd60e51b81526004016109a290612fa4565b336000908152601660205260409020546011546113648483613027565b11156113825760405162461bcd60e51b81526004016109a290612aba565b505b61138d33611a10565b156113e057600061139d33611704565b33600090815260166020526040902054909150816113bb8583613027565b11156113d95760405162461bcd60e51b81526004016109a290612aba565b505061140d565b81600e546113ee9190613053565b34101561140d5760405162461bcd60e51b81526004016109a290612edb565b60015b828111610bb457336000908152601660205260408120805491611432836130f0565b9091555061144b9050336114468385613027565b611d4b565b80611455816130f0565b915050611410565b611465611ac0565b6001600160a01b0316826001600160a01b031614156114965760405162461bcd60e51b81526004016109a290612b35565b80600560006114a3611ac0565b6001600160a01b03908116825260208083019390935260409182016000908120918716808252919093529120805460ff1916921515929092179091556114e7611ac0565b6001600160a01b03167f17307eab39ab6107e8899845ad3d59bd9653f200f220920489ca2b5937696c318360405161151f9190612982565b60405180910390a35050565b611533611ac0565b6001600160a01b0316611544611223565b6001600160a01b03161461156a5760405162461bcd60e51b81526004016109a290612d9d565b6012805461ff001916610100179055565b61158c611586611ac0565b83611b4f565b6115a85760405162461bcd60e51b81526004016109a290612f07565b6115b484848484611d65565b50505050565b601381815481106110f457600080fd5b60115481565b600c8054610aa0906130b5565b60606115e882611ac4565b6116045760405162461bcd60e51b81526004016109a290612e4b565b601254610100900460ff166116a557600d8054611620906130b5565b80601f016020809104026020016040519081016040528092919081815260200182805461164c906130b5565b80156116995780601f1061166e57610100808354040283529160200191611699565b820191906000526020600020905b81548152906001019060200180831161167c57829003601f168201915b5050505050905061095e565b60006116af611d98565b905060008151116116cf57604051806020016040528060008152506116fd565b806116d984611da7565b600c6040516020016116ed93929190612828565b6040516020818303038152906040525b9392505050565b6000805b601454811015610dbf57826001600160a01b03166014828154811061173d57634e487b7160e01b600052603260045260246000fd5b6000918252602090912001546001600160a01b0316141561178c576015818154811061177957634e487b7160e01b600052603260045260246000fd5b906000526020600020015491505061095e565b80611796816130f0565b915050611708565b6117a6611ac0565b6001600160a01b03166117b7611223565b6001600160a01b0316146117dd5760405162461bcd60e51b81526004016109a290612d9d565b601155565b600f5481565b6117f0611ac0565b6001600160a01b0316611801611223565b6001600160a01b0316146118275760405162461bcd60e51b81526004016109a290612d9d565b80516110d790600c9060208401906123fe565b6001600160a01b0381166000908152601660205260408120548161185d84611704565b9050600061186b8383613072565b95945050505050565b6001600160a01b03918216600090815260056020908152604080832093909416825291909152205460ff1690565b6118aa611ac0565b6001600160a01b03166118bb611223565b6001600160a01b0316146118e15760405162461bcd60e51b81526004016109a290612d9d565b6118ed60136000612395565b610bb460138383612472565b611901611ac0565b6001600160a01b0316611912611223565b6001600160a01b0316146119385760405162461bcd60e51b81526004016109a290612d9d565b61194460146000612395565b610bb460148383612472565b611958611ac0565b6001600160a01b0316611969611223565b6001600160a01b03161461198f5760405162461bcd60e51b81526004016109a290612d9d565b80516110d790600d9060208401906123fe565b6119aa611ac0565b6001600160a01b03166119bb611223565b6001600160a01b0316146119e15760405162461bcd60e51b81526004016109a290612d9d565b6001600160a01b038116611a075760405162461bcd60e51b81526004016109a290612a3d565b610ecb81611cf9565b6000805b601454811015610dbf57826001600160a01b031660148281548110611a4957634e487b7160e01b600052603260045260246000fd5b6000918252602090912001546001600160a01b03161415611a6e57600191505061095e565b80611a78816130f0565b915050611a14565b60006001600160e01b031982166380ac58cd60e01b1480611ab157506001600160e01b03198216635b5e139f60e01b145b8061095b575061095b82611ec2565b3390565b6000908152600260205260409020546001600160a01b0316151590565b600081815260046020526040902080546001600160a01b0319166001600160a01b0384169081179091558190611b168261110e565b6001600160a01b03167f8c5be1e5ebec7d5bd14f71427d1e84f3dd0314c0f7b2291e5b200ac8c7c3b92560405160405180910390a45050565b6000611b5a82611ac4565b611b765760405162461bcd60e51b81526004016109a290612b6c565b6000611b818361110e565b9050806001600160a01b0316846001600160a01b03161480611bbc5750836001600160a01b0316611bb184610a50565b6001600160a01b0316145b8061101457506110148185611874565b826001600160a01b0316611bdf8261110e565b6001600160a01b031614611c055760405162461bcd60e51b81526004016109a290612e02565b6001600160a01b038216611c2b5760405162461bcd60e51b81526004016109a290612af1565b611c36838383611edb565b611c41600082611ae1565b6001600160a01b0383166000908152600360205260408120805460019290611c6a908490613072565b90915550506001600160a01b0382166000908152600360205260408120805460019290611c98908490613027565b909155505060008181526002602052604080822080546001600160a01b0319166001600160a01b0386811691821790925591518493918716917fddf252ad1be2c89b69c2b068fc378daa952ba7f163c4a11628f55a4df523b3ef91a4505050565b600a80546001600160a01b038381166001600160a01b0319831681179093556040519116919082907f8be0079c531659141344cd1fd0a4f28419497f9722a3daafe3b4186f6b6457e090600090a35050565b6110d7828260405180602001604052806000815250611f64565b611d70848484611bcc565b611d7c84848484611f97565b6115b45760405162461bcd60e51b81526004016109a2906129eb565b6060600b80546109cd906130b5565b606081611dcc57506040805180820190915260018152600360fc1b602082015261095e565b8160005b8115611df65780611de0816130f0565b9150611def9050600a8361303f565b9150611dd0565b60008167ffffffffffffffff811115611e1f57634e487b7160e01b600052604160045260246000fd5b6040519080825280601f01601f191660200182016040528015611e49576020820181803683370190505b5090505b841561101457611e5e600183613072565b9150611e6b600a8661310b565b611e76906030613027565b60f81b818381518110611e9957634e487b7160e01b600052603260045260246000fd5b60200101906001600160f81b031916908160001a905350611ebb600a8661303f565b9450611e4d565b6001600160e01b031981166301ffc9a760e01b14919050565b611ee6838383610bb4565b6001600160a01b038316611f0257611efd816120b2565b611f25565b816001600160a01b0316836001600160a01b031614611f2557611f2583826120f6565b6001600160a01b038216611f4157611f3c81612193565b610bb4565b826001600160a01b0316826001600160a01b031614610bb457610bb4828261226c565b611f6e83836122b0565b611f7b6000848484611f97565b610bb45760405162461bcd60e51b81526004016109a2906129eb565b6000611fab846001600160a01b031661238f565b156120a757836001600160a01b031663150b7a02611fc7611ac0565b8786866040518563ffffffff1660e01b8152600401611fe99493929190612901565b602060405180830381600087803b15801561200357600080fd5b505af1925050508015612033575060408051601f3d908101601f1916820190925261203091810190612782565b60015b61208d573d808015612061576040519150601f19603f3d011682016040523d82523d6000602084013e612066565b606091505b5080516120855760405162461bcd60e51b81526004016109a2906129eb565b805181602001fd5b6001600160e01b031916630a85bd0160e11b149050611014565b506001949350505050565b600880546000838152600960205260408120829055600182018355919091527ff3f7a9fe364faab93b216da50a3214154f22a0a2b415b23a84c8169e8b636ee30155565b6000600161210384611150565b61210d9190613072565b600083815260076020526040902054909150808214612160576001600160a01b03841660009081526006602090815260408083208584528252808320548484528184208190558352600790915290208190555b5060009182526007602090815260408084208490556001600160a01b039094168352600681528383209183525290812055565b6008546000906121a590600190613072565b600083815260096020526040812054600880549394509092849081106121db57634e487b7160e01b600052603260045260246000fd5b90600052602060002001549050806008838154811061220a57634e487b7160e01b600052603260045260246000fd5b600091825260208083209091019290925582815260099091526040808220849055858252812055600880548061225057634e487b7160e01b600052603160045260246000fd5b6001900381819060005260206000200160009055905550505050565b600061227783611150565b6001600160a01b039093166000908152600660209081526040808320868452825280832085905593825260079052919091209190915550565b6001600160a01b0382166122d65760405162461bcd60e51b81526004016109a290612d1c565b6122df81611ac4565b156122fc5760405162461bcd60e51b81526004016109a290612a83565b61230860008383611edb565b6001600160a01b0382166000908152600360205260408120805460019290612331908490613027565b909155505060008181526002602052604080822080546001600160a01b0319166001600160a01b03861690811790915590518392907fddf252ad1be2c89b69c2b068fc378daa952ba7f163c4a11628f55a4df523b3ef908290a45050565b3b151590565b5080546000825590600052602060002090810190610ecb91906124c5565b8280548282559060005260206000209081019282156123ee579160200282015b828111156123ee5782358255916020019190600101906123d3565b506123fa9291506124c5565b5090565b82805461240a906130b5565b90600052602060002090601f01602090048101928261242c57600085556123ee565b82601f1061244557805160ff19168380011785556123ee565b828001600101855582156123ee579182015b828111156123ee578251825591602001919060010190612457565b8280548282559060005260206000209081019282156123ee579160200282015b828111156123ee5781546001600160a01b0319166001600160a01b03843516178255602090920191600190910190612492565b5b808211156123fa57600081556001016124c6565b600067ffffffffffffffff808411156124f5576124f561314b565b604051601f8501601f1916810160200182811182821017156125195761251961314b565b60405284815291508183850186101561253157600080fd5b8484602083013760006020868301015250509392505050565b80356001600160a01b038116811461095e57600080fd5b60008083601f840112612572578081fd5b50813567ffffffffffffffff811115612589578182fd5b60208301915083602080830285010111156125a357600080fd5b9250929050565b8035801515811461095e57600080fd5b6000602082840312156125cb578081fd5b6116fd8261254a565b600080604083850312156125e6578081fd5b6125ef8361254a565b91506125fd6020840161254a565b90509250929050565b60008060006060848603121561261a578081fd5b6126238461254a565b92506126316020850161254a565b9150604084013590509250925092565b60008060008060808587031215612656578081fd5b61265f8561254a565b935061266d6020860161254a565b925060408501359150606085013567ffffffffffffffff81111561268f578182fd5b8501601f8101871361269f578182fd5b6126ae878235602084016124da565b91505092959194509250565b600080604083850312156126cc578182fd5b6126d58361254a565b91506125fd602084016125aa565b600080604083850312156126f5578182fd5b6126fe8361254a565b946020939093013593505050565b6000806020838503121561271e578182fd5b823567ffffffffffffffff811115612734578283fd5b61274085828601612561565b90969095509350505050565b60006020828403121561275d578081fd5b6116fd826125aa565b600060208284031215612777578081fd5b81356116fd81613161565b600060208284031215612793578081fd5b81516116fd81613161565b6000602082840312156127af578081fd5b813567ffffffffffffffff8111156127c5578182fd5b8201601f810184136127d5578182fd5b611014848235602084016124da565b6000602082840312156127f5578081fd5b5035919050565b60008151808452612814816020860160208601613089565b601f01601f19169290920160200192915050565b60008451602061283b8285838a01613089565b85519184019161284e8184848a01613089565b855492019183906002810460018083168061286a57607f831692505b85831081141561288857634e487b7160e01b88526022600452602488fd5b80801561289c57600181146128ad576128d9565b60ff198516885283880195506128d9565b6128b68b61301b565b895b858110156128d15781548a8201529084019088016128b8565b505083880195505b50939b9a5050505050505050505050565b90565b6001600160a01b0391909116815260200190565b6001600160a01b0385811682528416602082015260408101839052608060608201819052600090612934908301846127fc565b9695505050505050565b6020808252825182820181905260009190848201906040850190845b818110156129765783518352928401929184019160010161295a565b50909695505050505050565b901515815260200190565b6000602082526116fd60208301846127fc565b6020808252602b908201527f455243373231456e756d657261626c653a206f776e657220696e646578206f7560408201526a74206f6620626f756e647360a81b606082015260800190565b60208082526032908201527f4552433732313a207472616e7366657220746f206e6f6e20455243373231526560408201527131b2b4bb32b91034b6b83632b6b2b73a32b960711b606082015260800190565b60208082526026908201527f4f776e61626c653a206e6577206f776e657220697320746865207a65726f206160408201526564647265737360d01b606082015260800190565b6020808252601c908201527f4552433732313a20746f6b656e20616c7265616479206d696e74656400000000604082015260600190565b6020808252601c908201527f6d6178204e465420706572206164647265737320657863656564656400000000604082015260600190565b60208082526024908201527f4552433732313a207472616e7366657220746f20746865207a65726f206164646040820152637265737360e01b606082015260800190565b60208082526019908201527f4552433732313a20617070726f766520746f2063616c6c657200000000000000604082015260600190565b6020808252602c908201527f4552433732313a206f70657261746f7220717565727920666f72206e6f6e657860408201526b34b9ba32b73a103a37b5b2b760a11b606082015260800190565b60208082526038908201527f4552433732313a20617070726f76652063616c6c6572206973206e6f74206f7760408201527f6e6572206e6f7220617070726f76656420666f7220616c6c0000000000000000606082015260800190565b6020808252602a908201527f4552433732313a2062616c616e636520717565727920666f7220746865207a65604082015269726f206164647265737360b01b606082015260800190565b60208082526029908201527f4552433732313a206f776e657220717565727920666f72206e6f6e657869737460408201526832b73a103a37b5b2b760b91b606082015260800190565b6020808252601690820152751b585e08139195081b1a5b5a5d08195e18d95959195960521b604082015260600190565b60208082526024908201527f6d6178206d696e7420616d6f756e74207065722073657373696f6e20657863656040820152631959195960e21b606082015260800190565b6020808252818101527f4552433732313a206d696e7420746f20746865207a65726f2061646472657373604082015260600190565b6020808252602c908201527f4552433732313a20617070726f76656420717565727920666f72206e6f6e657860408201526b34b9ba32b73a103a37b5b2b760a11b606082015260800190565b6020808252818101527f4f776e61626c653a2063616c6c6572206973206e6f7420746865206f776e6572604082015260600190565b6020808252601690820152751d1a194818dbdb9d1c9858dd081a5cc81c185d5cd95960521b604082015260600190565b60208082526029908201527f4552433732313a207472616e73666572206f6620746f6b656e2074686174206960408201526839903737ba1037bbb760b91b606082015260800190565b6020808252602f908201527f4552433732314d657461646174613a2055524920717565727920666f72206e6f60408201526e3732bc34b9ba32b73a103a37b5b2b760891b606082015260800190565b60208082526021908201527f4552433732313a20617070726f76616c20746f2063757272656e74206f776e656040820152603960f91b606082015260800190565b602080825260129082015271696e73756666696369656e742066756e647360701b604082015260600190565b60208082526031908201527f4552433732313a207472616e736665722063616c6c6572206973206e6f74206f6040820152701ddb995c881b9bdc88185c1c1c9bdd9959607a1b606082015260800190565b6020808252602c908201527f455243373231456e756d657261626c653a20676c6f62616c20696e646578206f60408201526b7574206f6620626f756e647360a01b606082015260800190565b60208082526017908201527f75736572206973206e6f742077686974656c6973746564000000000000000000604082015260600190565b6020808252601b908201527f6e65656420746f206d696e74206174206c656173742031204e46540000000000604082015260600190565b90815260200190565b60009081526020902090565b6000821982111561303a5761303a61311f565b500190565b60008261304e5761304e613135565b500490565b600081600019048311821515161561306d5761306d61311f565b500290565b6000828210156130845761308461311f565b500390565b60005b838110156130a457818101518382015260200161308c565b838111156115b45750506000910152565b6002810460018216806130c957607f821691505b602082108114156130ea57634e487b7160e01b600052602260045260246000fd5b50919050565b60006000198214156131045761310461311f565b5060010190565b60008261311a5761311a613135565b500690565b634e487b7160e01b600052601160045260246000fd5b634e487b7160e01b600052601260045260246000fd5b634e487b7160e01b600052604160045260246000fd5b6001600160e01b031981168114610ecb57600080fdfea2646970667358221220e25bf8467d79b2273a90678beaf65b365defc9a2658d74cf613288d00f263ddc64736f6c63430008000033",
  "immutableReferences": {},
  "source": "// SPDX-License-Identifier: GPL-3.0\n\npragma solidity >=0.7.0 <0.9.0;\n\nimport \"@openzeppelin/contracts/token/ERC721/extensions/ERC721Enumerable.sol\";\nimport \"@openzeppelin/contracts/access/Ownable.sol\";\n\ncontract SmartContract is ERC721Enumerable, Ownable {\n  using Strings for uint256;\n\n  string public baseURI;\n  string public baseExtension = \".json\";\n  string public notRevealedUri;\n  uint256 public cost = 0.069 ether;\n  uint256 public maxSupply = 9999;\n  uint256 public maxMintAmount = 20;\n  uint256 public nftPerAddressLimit = 20;\n  bool public paused = false;\n  bool public revealed = false;\n  bool public onlyWhitelisted = true;\n  address[] public whitelistedAddresses;\n  address[] public vipAddresses;\n  uint256[] public vipMaxMinted;\n  mapping(address => uint256) public addressMintedBalance;\n\n\n  constructor(\n    string memory _name,\n    string memory _symbol,\n    string memory _initBaseURI,\n    string memory _initNotRevealedUri\n  ) ERC721(_name, _symbol) {\n    setBaseURI(_initBaseURI);\n    setNotRevealedURI(_initNotRevealedUri);\n  }\n\n  // internal\n  function _baseURI() internal view virtual override returns (string memory) {\n    return baseURI;\n  }\n\n  // public\n  function mint(uint256 _mintAmount) public payable {\n    require(!paused, \"the contract is paused\");\n    uint256 supply = totalSupply();\n    require(_mintAmount > 0, \"need to mint at least 1 NFT\");\n    require(_mintAmount <= maxMintAmount, \"max mint amount per session exceeded\");\n    require(supply + _mintAmount <= maxSupply, \"max NFT limit exceeded\");\n\n    if (msg.sender != owner()) {\n        if(onlyWhitelisted == true) {\n            require(isWhitelisted(msg.sender), \"user is not whitelisted\");\n            uint256 ownerMintedCount = addressMintedBalance[msg.sender];\n            require(ownerMintedCount + _mintAmount <= nftPerAddressLimit, \"max NFT per address exceeded\");\n        }\n        if(isVIP(msg.sender))\n        {\n          uint256 vipMintAmount1 = vipMintAmount(msg.sender);\n          uint256 ownerMintedCount = addressMintedBalance[msg.sender];\n          require(ownerMintedCount + _mintAmount <=  vipMintAmount1, \"max NFT per address exceeded\");\n        }\n        else\n        {\n          require(msg.value >= cost * _mintAmount, \"insufficient funds\");\n        }\n\n    }\n    \n\n    for (uint256 i = 1; i <= _mintAmount; i++) {\n        addressMintedBalance[msg.sender]++;\n      _safeMint(msg.sender, supply + i);\n    }\n    \n  }\n  \n    function qtyLeftForVIP(address _user) public view returns(uint256){\n         // uint256 supply = totalSupply();    \n          uint256 ownerMintedCount = addressMintedBalance[_user];\n          uint256 vipMintAmount1 = vipMintAmount(_user);\n          uint256 allowed = (vipMintAmount1  - ownerMintedCount);\n          return allowed;\n  }\n  \n  function qtyLeftForUser(address _user) public view returns(uint256){\n         // uint256 supply = totalSupply();    \n          uint256 ownerMintedCount = addressMintedBalance[_user];\n          uint256 allowed = (nftPerAddressLimit - ownerMintedCount);\n          return allowed;\n  }\n  \n  function isWhitelisted(address _user) public view returns (bool) {\n    for (uint i = 0; i < whitelistedAddresses.length; i++) {\n      if (whitelistedAddresses[i] == _user) {\n          return true;\n      }\n    }\n    for (uint i = 0; i < vipAddresses.length; i++) {\n      if (vipAddresses[i] == _user) {\n          return true;\n      }\n    }\n    return false;\n  }\n\n    function isVIP(address _user) public view returns (bool) {\n    for (uint i = 0; i < vipAddresses.length; i++) {\n      if (vipAddresses[i] == _user) {\n          return true;\n      }\n    }\n    return false;\n  }\n\n  function vipMintAmount(address _user) public view returns(uint256){\n    for (uint i = 0; i < vipAddresses.length; i++) {\n      if (vipAddresses[i] == _user) { \n          return vipMaxMinted[i];\n      }\n    }\n    return 0;\n  }\n                 \n  function walletOfOwner(address _owner)\n    public\n    view\n    returns (uint256[] memory)\n  {\n    uint256 ownerTokenCount = balanceOf(_owner);\n    uint256[] memory tokenIds = new uint256[](ownerTokenCount);\n    for (uint256 i; i < ownerTokenCount; i++) {\n      tokenIds[i] = tokenOfOwnerByIndex(_owner, i);\n    }\n    return tokenIds;\n  }\n\n  function tokenURI(uint256 tokenId)\n    public\n    view\n    virtual\n    override\n    returns (string memory)\n  {\n    require(\n      _exists(tokenId),\n      \"ERC721Metadata: URI query for nonexistent token\"\n    );\n    \n    if(revealed == false) {\n        return notRevealedUri; \n    }\n\n    string memory currentBaseURI = _baseURI();\n    return bytes(currentBaseURI).length > 0\n        ? string(abi.encodePacked(currentBaseURI, tokenId.toString(), baseExtension))\n        : \"\";\n  }\n\n  //only owner\n  function reveal() public onlyOwner() {\n      revealed = true;\n  }\n  \n  function setNftPerAddressLimit(uint256 _limit) public onlyOwner() {\n    nftPerAddressLimit = _limit;\n  }\n  \n  function setCost(uint256 _newCost) public onlyOwner() {\n    cost = _newCost;\n  }\n\n  function setmaxMintAmount(uint256 _newmaxMintAmount) public onlyOwner() {\n    maxMintAmount = _newmaxMintAmount;\n  }\n\n  function setBaseURI(string memory _newBaseURI) public onlyOwner {\n    baseURI = _newBaseURI;\n  }\n\n  function setBaseExtension(string memory _newBaseExtension) public onlyOwner {\n    baseExtension = _newBaseExtension;\n  }\n  \n  function setNotRevealedURI(string memory _notRevealedURI) public onlyOwner {\n    notRevealedUri = _notRevealedURI;\n  }\n\n  function pause(bool _state) public onlyOwner {\n    paused = _state;\n  }\n  \n  function setOnlyWhitelisted(bool _state) public onlyOwner {\n    onlyWhitelisted = _state;\n  }\n  \n  function whitelistUsers(address[] calldata _users) public onlyOwner {\n    delete whitelistedAddresses;\n    whitelistedAddresses = _users;\n  }\n  \n  function vipUsers(address[] calldata _users) public onlyOwner {\n    delete vipAddresses;\n    vipAddresses = _users;\n  }\n  \n  function vipUsersMaxMint(uint256[] calldata _numberofmints) public onlyOwner {\n    delete vipMaxMinted;\n    vipMaxMinted = _numberofmints;\n  }\n \n  function withdraw() public payable onlyOwner {\n    (bool success, ) = payable(msg.sender).call{value: address(this).balance}(\"\");\n    require(success);\n  }\n}\n",
  "sourcePath": "C:\\Users\\deon\\Documents\\GitHub\\rickfcks\\contracts\\SmartContract.sol",
  "compiler": {
    "name": "solc",
    "version": "0.8.0+commit.c7dfd78e.Emscripten.clang"
  },
  "schemaVersion": "3.4.3",
  "updatedAt": "2021-10-21T22:04:00.298Z",
  "networkType": "ethereum",
  "devdoc": {
    "kind": "dev",
    "methods": {
      "approve(address,uint256)": {
        "details": "See {IERC721-approve}."
      },
      "balanceOf(address)": {
        "details": "See {IERC721-balanceOf}."
      },
      "getApproved(uint256)": {
        "details": "See {IERC721-getApproved}."
      },
      "isApprovedForAll(address,address)": {
        "details": "See {IERC721-isApprovedForAll}."
      },
      "name()": {
        "details": "See {IERC721Metadata-name}."
      },
      "owner()": {
        "details": "Returns the address of the current owner."
      },
      "ownerOf(uint256)": {
        "details": "See {IERC721-ownerOf}."
      },
      "renounceOwnership()": {
        "details": "Leaves the contract without owner. It will not be possible to call `onlyOwner` functions anymore. Can only be called by the current owner. NOTE: Renouncing ownership will leave the contract without an owner, thereby removing any functionality that is only available to the owner."
      },
      "safeTransferFrom(address,address,uint256)": {
        "details": "See {IERC721-safeTransferFrom}."
      },
      "safeTransferFrom(address,address,uint256,bytes)": {
        "details": "See {IERC721-safeTransferFrom}."
      },
      "setApprovalForAll(address,bool)": {
        "details": "See {IERC721-setApprovalForAll}."
      },
      "supportsInterface(bytes4)": {
        "details": "See {IERC165-supportsInterface}."
      },
      "symbol()": {
        "details": "See {IERC721Metadata-symbol}."
      },
      "tokenByIndex(uint256)": {
        "details": "See {IERC721Enumerable-tokenByIndex}."
      },
      "tokenOfOwnerByIndex(address,uint256)": {
        "details": "See {IERC721Enumerable-tokenOfOwnerByIndex}."
      },
      "tokenURI(uint256)": {
        "details": "See {IERC721Metadata-tokenURI}."
      },
      "totalSupply()": {
        "details": "See {IERC721Enumerable-totalSupply}."
      },
      "transferFrom(address,address,uint256)": {
        "details": "See {IERC721-transferFrom}."
      },
      "transferOwnership(address)": {
        "details": "Transfers ownership of the contract to a new account (`newOwner`). Can only be called by the current owner."
      }
    },
    "version": 1
  },
  "userdoc": {
    "kind": "user",
    "methods": {},
    "version": 1
  }
}