{
  "contractName": "SmartContract",
  "abi": [
    {
      "inputs": [
        {
          "internalType": "string",
          "name": "_name",
          "type": "string"
        },
        {
          "internalType": "string",
          "name": "_symbol",
          "type": "string"
        },
        {
          "internalType": "string",
          "name": "_initBaseURI",
          "type": "string"
        },
        {
          "internalType": "string",
          "name": "_initNotRevealedUri",
          "type": "string"
        }
      ],
      "stateMutability": "nonpayable",
      "type": "constructor"
    },
    {
      "anonymous": false,
      "inputs": [
        {
          "indexed": true,
          "internalType": "address",
          "name": "owner",
          "type": "address"
        },
        {
          "indexed": true,
          "internalType": "address",
          "name": "approved",
          "type": "address"
        },
        {
          "indexed": true,
          "internalType": "uint256",
          "name": "tokenId",
          "type": "uint256"
        }
      ],
      "name": "Approval",
      "type": "event"
    },
    {
      "anonymous": false,
      "inputs": [
        {
          "indexed": true,
          "internalType": "address",
          "name": "owner",
          "type": "address"
        },
        {
          "indexed": true,
          "internalType": "address",
          "name": "operator",
          "type": "address"
        },
        {
          "indexed": false,
          "internalType": "bool",
          "name": "approved",
          "type": "bool"
        }
      ],
      "name": "ApprovalForAll",
      "type": "event"
    },
    {
      "anonymous": false,
      "inputs": [
        {
          "indexed": true,
          "internalType": "address",
          "name": "previousOwner",
          "type": "address"
        },
        {
          "indexed": true,
          "internalType": "address",
          "name": "newOwner",
          "type": "address"
        }
      ],
      "name": "OwnershipTransferred",
      "type": "event"
    },
    {
      "anonymous": false,
      "inputs": [
        {
          "indexed": true,
          "internalType": "address",
          "name": "from",
          "type": "address"
        },
        {
          "indexed": true,
          "internalType": "address",
          "name": "to",
          "type": "address"
        },
        {
          "indexed": true,
          "internalType": "uint256",
          "name": "tokenId",
          "type": "uint256"
        }
      ],
      "name": "Transfer",
      "type": "event"
    },
    {
      "inputs": [],
      "name": "_canMint",
      "outputs": [
        {
          "internalType": "bool",
          "name": "",
          "type": "bool"
        }
      ],
      "stateMutability": "view",
      "type": "function",
      "constant": true
    },
    {
      "inputs": [
        {
          "internalType": "address",
          "name": "",
          "type": "address"
        }
      ],
      "name": "addressMintedBalance",
      "outputs": [
        {
          "internalType": "uint256",
          "name": "",
          "type": "uint256"
        }
      ],
      "stateMutability": "view",
      "type": "function",
      "constant": true
    },
    {
      "inputs": [
        {
          "internalType": "address",
          "name": "to",
          "type": "address"
        },
        {
          "internalType": "uint256",
          "name": "tokenId",
          "type": "uint256"
        }
      ],
      "name": "approve",
      "outputs": [],
      "stateMutability": "nonpayable",
      "type": "function"
    },
    {
      "inputs": [
        {
          "internalType": "address",
          "name": "owner",
          "type": "address"
        }
      ],
      "name": "balanceOf",
      "outputs": [
        {
          "internalType": "uint256",
          "name": "",
          "type": "uint256"
        }
      ],
      "stateMutability": "view",
      "type": "function",
      "constant": true
    },
    {
      "inputs": [],
      "name": "baseExtension",
      "outputs": [
        {
          "internalType": "string",
          "name": "",
          "type": "string"
        }
      ],
      "stateMutability": "view",
      "type": "function",
      "constant": true
    },
    {
      "inputs": [],
      "name": "baseURI",
      "outputs": [
        {
          "internalType": "string",
          "name": "",
          "type": "string"
        }
      ],
      "stateMutability": "view",
      "type": "function",
      "constant": true
    },
    {
      "inputs": [],
      "name": "cost",
      "outputs": [
        {
          "internalType": "uint256",
          "name": "",
          "type": "uint256"
        }
      ],
      "stateMutability": "view",
      "type": "function",
      "constant": true
    },
    {
      "inputs": [
        {
          "internalType": "uint256",
          "name": "tokenId",
          "type": "uint256"
        }
      ],
      "name": "getApproved",
      "outputs": [
        {
          "internalType": "address",
          "name": "",
          "type": "address"
        }
      ],
      "stateMutability": "view",
      "type": "function",
      "constant": true
    },
    {
      "inputs": [
        {
          "internalType": "address",
          "name": "owner",
          "type": "address"
        },
        {
          "internalType": "address",
          "name": "operator",
          "type": "address"
        }
      ],
      "name": "isApprovedForAll",
      "outputs": [
        {
          "internalType": "bool",
          "name": "",
          "type": "bool"
        }
      ],
      "stateMutability": "view",
      "type": "function",
      "constant": true
    },
    {
      "inputs": [],
      "name": "maxSupply",
      "outputs": [
        {
          "internalType": "uint256",
          "name": "",
          "type": "uint256"
        }
      ],
      "stateMutability": "view",
      "type": "function",
      "constant": true
    },
    {
      "inputs": [],
      "name": "name",
      "outputs": [
        {
          "internalType": "string",
          "name": "",
          "type": "string"
        }
      ],
      "stateMutability": "view",
      "type": "function",
      "constant": true
    },
    {
      "inputs": [],
      "name": "nftPerAddressLimit",
      "outputs": [
        {
          "internalType": "uint256",
          "name": "",
          "type": "uint256"
        }
      ],
      "stateMutability": "view",
      "type": "function",
      "constant": true
    },
    {
      "inputs": [],
      "name": "notRevealedUri",
      "outputs": [
        {
          "internalType": "string",
          "name": "",
          "type": "string"
        }
      ],
      "stateMutability": "view",
      "type": "function",
      "constant": true
    },
    {
      "inputs": [],
      "name": "onlyVIP",
      "outputs": [
        {
          "internalType": "bool",
          "name": "",
          "type": "bool"
        }
      ],
      "stateMutability": "view",
      "type": "function",
      "constant": true
    },
    {
      "inputs": [],
      "name": "onlyWhitelisted",
      "outputs": [
        {
          "internalType": "bool",
          "name": "",
          "type": "bool"
        }
      ],
      "stateMutability": "view",
      "type": "function",
      "constant": true
    },
    {
      "inputs": [],
      "name": "owner",
      "outputs": [
        {
          "internalType": "address",
          "name": "",
          "type": "address"
        }
      ],
      "stateMutability": "view",
      "type": "function",
      "constant": true
    },
    {
      "inputs": [
        {
          "internalType": "uint256",
          "name": "tokenId",
          "type": "uint256"
        }
      ],
      "name": "ownerOf",
      "outputs": [
        {
          "internalType": "address",
          "name": "",
          "type": "address"
        }
      ],
      "stateMutability": "view",
      "type": "function",
      "constant": true
    },
    {
      "inputs": [],
      "name": "paused",
      "outputs": [
        {
          "internalType": "bool",
          "name": "",
          "type": "bool"
        }
      ],
      "stateMutability": "view",
      "type": "function",
      "constant": true
    },
    {
      "inputs": [],
      "name": "renounceOwnership",
      "outputs": [],
      "stateMutability": "nonpayable",
      "type": "function"
    },
    {
      "inputs": [],
      "name": "revealed",
      "outputs": [
        {
          "internalType": "bool",
          "name": "",
          "type": "bool"
        }
      ],
      "stateMutability": "view",
      "type": "function",
      "constant": true
    },
    {
      "inputs": [
        {
          "internalType": "address",
          "name": "from",
          "type": "address"
        },
        {
          "internalType": "address",
          "name": "to",
          "type": "address"
        },
        {
          "internalType": "uint256",
          "name": "tokenId",
          "type": "uint256"
        }
      ],
      "name": "safeTransferFrom",
      "outputs": [],
      "stateMutability": "nonpayable",
      "type": "function"
    },
    {
      "inputs": [
        {
          "internalType": "address",
          "name": "from",
          "type": "address"
        },
        {
          "internalType": "address",
          "name": "to",
          "type": "address"
        },
        {
          "internalType": "uint256",
          "name": "tokenId",
          "type": "uint256"
        },
        {
          "internalType": "bytes",
          "name": "_data",
          "type": "bytes"
        }
      ],
      "name": "safeTransferFrom",
      "outputs": [],
      "stateMutability": "nonpayable",
      "type": "function"
    },
    {
      "inputs": [
        {
          "internalType": "address",
          "name": "operator",
          "type": "address"
        },
        {
          "internalType": "bool",
          "name": "approved",
          "type": "bool"
        }
      ],
      "name": "setApprovalForAll",
      "outputs": [],
      "stateMutability": "nonpayable",
      "type": "function"
    },
    {
      "inputs": [
        {
          "internalType": "bytes4",
          "name": "interfaceId",
          "type": "bytes4"
        }
      ],
      "name": "supportsInterface",
      "outputs": [
        {
          "internalType": "bool",
          "name": "",
          "type": "bool"
        }
      ],
      "stateMutability": "view",
      "type": "function",
      "constant": true
    },
    {
      "inputs": [],
      "name": "symbol",
      "outputs": [
        {
          "internalType": "string",
          "name": "",
          "type": "string"
        }
      ],
      "stateMutability": "view",
      "type": "function",
      "constant": true
    },
    {
      "inputs": [
        {
          "internalType": "uint256",
          "name": "index",
          "type": "uint256"
        }
      ],
      "name": "tokenByIndex",
      "outputs": [
        {
          "internalType": "uint256",
          "name": "",
          "type": "uint256"
        }
      ],
      "stateMutability": "view",
      "type": "function",
      "constant": true
    },
    {
      "inputs": [
        {
          "internalType": "address",
          "name": "owner",
          "type": "address"
        },
        {
          "internalType": "uint256",
          "name": "index",
          "type": "uint256"
        }
      ],
      "name": "tokenOfOwnerByIndex",
      "outputs": [
        {
          "internalType": "uint256",
          "name": "",
          "type": "uint256"
        }
      ],
      "stateMutability": "view",
      "type": "function",
      "constant": true
    },
    {
      "inputs": [],
      "name": "totalSupply",
      "outputs": [
        {
          "internalType": "uint256",
          "name": "",
          "type": "uint256"
        }
      ],
      "stateMutability": "view",
      "type": "function",
      "constant": true
    },
    {
      "inputs": [
        {
          "internalType": "address",
          "name": "from",
          "type": "address"
        },
        {
          "internalType": "address",
          "name": "to",
          "type": "address"
        },
        {
          "internalType": "uint256",
          "name": "tokenId",
          "type": "uint256"
        }
      ],
      "name": "transferFrom",
      "outputs": [],
      "stateMutability": "nonpayable",
      "type": "function"
    },
    {
      "inputs": [
        {
          "internalType": "address",
          "name": "newOwner",
          "type": "address"
        }
      ],
      "name": "transferOwnership",
      "outputs": [],
      "stateMutability": "nonpayable",
      "type": "function"
    },
    {
      "inputs": [
        {
          "internalType": "uint256",
          "name": "",
          "type": "uint256"
        }
      ],
      "name": "vipAddresses",
      "outputs": [
        {
          "internalType": "address",
          "name": "",
          "type": "address"
        }
      ],
      "stateMutability": "view",
      "type": "function",
      "constant": true
    },
    {
      "inputs": [
        {
          "internalType": "uint256",
          "name": "",
          "type": "uint256"
        }
      ],
      "name": "whitelistedAddresses",
      "outputs": [
        {
          "internalType": "address",
          "name": "",
          "type": "address"
        }
      ],
      "stateMutability": "view",
      "type": "function",
      "constant": true
    },
    {
      "inputs": [
        {
          "internalType": "uint256",
          "name": "_mintAmount",
          "type": "uint256"
        }
      ],
      "name": "mint",
      "outputs": [],
      "stateMutability": "payable",
      "type": "function",
      "payable": true
    },
    {
      "inputs": [],
      "name": "getCost",
      "outputs": [
        {
          "internalType": "string",
          "name": "",
          "type": "string"
        }
      ],
      "stateMutability": "view",
      "type": "function",
      "constant": true
    },
    {
      "inputs": [
        {
          "internalType": "address",
          "name": "_user",
          "type": "address"
        }
      ],
      "name": "isWhitelisted",
      "outputs": [
        {
          "internalType": "bool",
          "name": "",
          "type": "bool"
        }
      ],
      "stateMutability": "view",
      "type": "function",
      "constant": true
    },
    {
      "inputs": [
        {
          "internalType": "address",
          "name": "_user",
          "type": "address"
        }
      ],
      "name": "isVIP",
      "outputs": [
        {
          "internalType": "bool",
          "name": "",
          "type": "bool"
        }
      ],
      "stateMutability": "view",
      "type": "function",
      "constant": true
    },
    {
      "inputs": [
        {
          "internalType": "address",
          "name": "_owner",
          "type": "address"
        }
      ],
      "name": "walletOfOwner",
      "outputs": [
        {
          "internalType": "uint256[]",
          "name": "",
          "type": "uint256[]"
        }
      ],
      "stateMutability": "view",
      "type": "function",
      "constant": true
    },
    {
      "inputs": [
        {
          "internalType": "uint256",
          "name": "tokenId",
          "type": "uint256"
        }
      ],
      "name": "tokenURI",
      "outputs": [
        {
          "internalType": "string",
          "name": "",
          "type": "string"
        }
      ],
      "stateMutability": "view",
      "type": "function",
      "constant": true
    },
    {
      "inputs": [],
      "name": "reveal",
      "outputs": [],
      "stateMutability": "nonpayable",
      "type": "function"
    },
    {
      "inputs": [
        {
          "internalType": "uint256",
          "name": "_limit",
          "type": "uint256"
        }
      ],
      "name": "setNftPerAddressLimit",
      "outputs": [],
      "stateMutability": "nonpayable",
      "type": "function"
    },
    {
      "inputs": [
        {
          "internalType": "uint256",
          "name": "_newCost",
          "type": "uint256"
        }
      ],
      "name": "setCost",
      "outputs": [],
      "stateMutability": "nonpayable",
      "type": "function"
    },
    {
      "inputs": [
        {
          "internalType": "string",
          "name": "_newBaseURI",
          "type": "string"
        }
      ],
      "name": "setBaseURI",
      "outputs": [],
      "stateMutability": "nonpayable",
      "type": "function"
    },
    {
      "inputs": [
        {
          "internalType": "string",
          "name": "_newBaseExtension",
          "type": "string"
        }
      ],
      "name": "setBaseExtension",
      "outputs": [],
      "stateMutability": "nonpayable",
      "type": "function"
    },
    {
      "inputs": [
        {
          "internalType": "string",
          "name": "_notRevealedURI",
          "type": "string"
        }
      ],
      "name": "setNotRevealedURI",
      "outputs": [],
      "stateMutability": "nonpayable",
      "type": "function"
    },
    {
      "inputs": [
        {
          "internalType": "bool",
          "name": "_state",
          "type": "bool"
        }
      ],
      "name": "pause",
      "outputs": [],
      "stateMutability": "nonpayable",
      "type": "function"
    },
    {
      "inputs": [
        {
          "internalType": "bool",
          "name": "_state",
          "type": "bool"
        }
      ],
      "name": "setOnlyWhitelisted",
      "outputs": [],
      "stateMutability": "nonpayable",
      "type": "function"
    },
    {
      "inputs": [
        {
          "internalType": "address[]",
          "name": "_users",
          "type": "address[]"
        }
      ],
      "name": "whitelistUsers",
      "outputs": [],
      "stateMutability": "nonpayable",
      "type": "function"
    },
    {
      "inputs": [
        {
          "internalType": "address[]",
          "name": "_users",
          "type": "address[]"
        }
      ],
      "name": "vipUsers",
      "outputs": [],
      "stateMutability": "nonpayable",
      "type": "function"
    },
    {
      "inputs": [],
      "name": "withdraw",
      "outputs": [],
      "stateMutability": "payable",
      "type": "function",
      "payable": true
    }
  ],
  "bytecode": "0x60c06040526005608081905264173539b7b760d91b60a09081526200002891600c91906200022d565b5066f5232269808000600e5561270f600f5560016010556011805460ff60201b1963ff0000001962ffffff199092166201000017919091166301000000171690553480156200007657600080fd5b50604051620034613803806200346183398101604081905262000099916200037e565b835184908490620000b29060009060208501906200022d565b508051620000c89060019060208401906200022d565b505050620000e5620000df6200010560201b60201c565b62000109565b620000f0826200015b565b620000fb81620001c3565b50505050620004ba565b3390565b600a80546001600160a01b038381166001600160a01b0319831681179093556040519116919082907f8be0079c531659141344cd1fd0a4f28419497f9722a3daafe3b4186f6b6457e090600090a35050565b6200016562000105565b6001600160a01b0316620001786200021e565b6001600160a01b031614620001aa5760405162461bcd60e51b8152600401620001a19062000432565b60405180910390fd5b8051620001bf90600b9060208401906200022d565b5050565b620001cd62000105565b6001600160a01b0316620001e06200021e565b6001600160a01b031614620002095760405162461bcd60e51b8152600401620001a19062000432565b8051620001bf90600d9060208401906200022d565b600a546001600160a01b031690565b8280546200023b9062000467565b90600052602060002090601f0160209004810192826200025f5760008555620002aa565b82601f106200027a57805160ff1916838001178555620002aa565b82800160010185558215620002aa579182015b82811115620002aa5782518255916020019190600101906200028d565b50620002b8929150620002bc565b5090565b5b80821115620002b85760008155600101620002bd565b600082601f830112620002e4578081fd5b81516001600160401b0380821115620003015762000301620004a4565b6040516020601f8401601f1916820181018381118382101715620003295762000329620004a4565b604052838252858401810187101562000340578485fd5b8492505b8383101562000363578583018101518284018201529182019162000344565b838311156200037457848185840101525b5095945050505050565b6000806000806080858703121562000394578384fd5b84516001600160401b0380821115620003ab578586fd5b620003b988838901620002d3565b95506020870151915080821115620003cf578485fd5b620003dd88838901620002d3565b94506040870151915080821115620003f3578384fd5b6200040188838901620002d3565b9350606087015191508082111562000417578283fd5b506200042687828801620002d3565b91505092959194509250565b6020808252818101527f4f776e61626c653a2063616c6c6572206973206e6f7420746865206f776e6572604082015260600190565b6002810460018216806200047c57607f821691505b602082108114156200049e57634e487b7160e01b600052602260045260246000fd5b50919050565b634e487b7160e01b600052604160045260246000fd5b612f9780620004ca6000396000f3fe6080604052600436106102ae5760003560e01c80636c0360eb11610175578063ba7d2c76116100dc578063da3ef23f11610095578063eea8a0ed1161006f578063eea8a0ed146107b4578063f2c4ce1e146107d4578063f2fde38b146107f4578063f4201c3c14610814576102ae565b8063da3ef23f14610754578063e985e9c514610774578063edec5f2714610794576102ae565b8063ba7d2c76146106c0578063bd3e19d4146106d5578063c6682862146106ea578063c87b56dd146106ff578063d0eb26b01461071f578063d5abeb011461073f576102ae565b8063a0712d681161012e578063a0712d6814610623578063a22cb46514610636578063a475b5dd14610656578063b7b988301461066b578063b88d4fde14610680578063ba4e5c49146106a0576102ae565b80636c0360eb1461059a57806370a08231146105af578063715018a6146105cf5780638da5cb5b146105e457806395d89b41146105f95780639c70b5121461060e576102ae565b80633c9527641161021957806351830227116101d257806351830227146104fb57806355f804b3146105105780635c975abb146105305780636045051a146105455780636352211e1461056557806365f9cfad14610585576102ae565b80633c952764146104465780633ccfd60b1461046657806342842e0e1461046e578063438b63001461048e57806344a0d68a146104bb5780634f6ccce7146104db576102ae565b806313faede61161026b57806313faede61461038f57806318160ddd146103b157806318cae269146103c657806323b872dd146103e65780632f745c59146104065780633af32abf14610426576102ae565b806301ffc9a7146102b357806302329a29146102e957806306fdde031461030b578063081812fc1461032d578063081c8c441461035a578063095ea7b31461036f575b600080fd5b3480156102bf57600080fd5b506102d36102ce366004612594565b610834565b6040516102e091906127b0565b60405180910390f35b3480156102f557600080fd5b5061030961030436600461257a565b610861565b005b34801561031757600080fd5b506103206108bc565b6040516102e091906127bb565b34801561033957600080fd5b5061034d610348366004612612565b61094e565b6040516102e0919061271b565b34801561036657600080fd5b50610320610991565b34801561037b57600080fd5b5061030961038a3660046124e2565b610a1f565b34801561039b57600080fd5b506103a4610ab7565b6040516102e09190612dfc565b3480156103bd57600080fd5b506103a4610abd565b3480156103d257600080fd5b506103a46103e13660046123b9565b610ac3565b3480156103f257600080fd5b50610309610401366004612405565b610ad5565b34801561041257600080fd5b506103a46104213660046124e2565b610b0d565b34801561043257600080fd5b506102d36104413660046123b9565b610b5f565b34801561045257600080fd5b5061030961046136600461257a565b610bd8565b610309610c33565b34801561047a57600080fd5b50610309610489366004612405565b610cde565b34801561049a57600080fd5b506104ae6104a93660046123b9565b610cf9565b6040516102e0919061276c565b3480156104c757600080fd5b506103096104d6366004612612565b610db7565b3480156104e757600080fd5b506103a46104f6366004612612565b610dfb565b34801561050757600080fd5b506102d3610e56565b34801561051c57600080fd5b5061030961052b3660046125cc565b610e64565b34801561053c57600080fd5b506102d3610eba565b34801561055157600080fd5b5061034d610560366004612612565b610ec3565b34801561057157600080fd5b5061034d610580366004612612565b610eed565b34801561059157600080fd5b506102d3610f22565b3480156105a657600080fd5b50610320610f32565b3480156105bb57600080fd5b506103a46105ca3660046123b9565b610f3f565b3480156105db57600080fd5b50610309610f83565b3480156105f057600080fd5b5061034d610fce565b34801561060557600080fd5b50610320610fdd565b34801561061a57600080fd5b506102d3610fec565b610309610631366004612612565b610ffb565b34801561064257600080fd5b506103096106513660046124b9565b611389565b34801561066257600080fd5b50610309611457565b34801561067757600080fd5b506102d36114a7565b34801561068c57600080fd5b5061030961069b366004612440565b6114b8565b3480156106ac57600080fd5b5061034d6106bb366004612612565b6114f7565b3480156106cc57600080fd5b506103a4611507565b3480156106e157600080fd5b5061032061150d565b3480156106f657600080fd5b5061032061151f565b34801561070b57600080fd5b5061032061071a366004612612565b61152c565b34801561072b57600080fd5b5061030961073a366004612612565b611653565b34801561074b57600080fd5b506103a4611697565b34801561076057600080fd5b5061030961076f3660046125cc565b61169d565b34801561078057600080fd5b506102d361078f3660046123d3565b6116ef565b3480156107a057600080fd5b506103096107af36600461250b565b61171d565b3480156107c057600080fd5b506103096107cf36600461250b565b611774565b3480156107e057600080fd5b506103096107ef3660046125cc565b6117cb565b34801561080057600080fd5b5061030961080f3660046123b9565b61181d565b34801561082057600080fd5b506102d361082f3660046123b9565b61188b565b60006001600160e01b0319821663780e9d6360e01b14806108595750610859826118fb565b90505b919050565b61086961193b565b6001600160a01b031661087a610fce565b6001600160a01b0316146108a95760405162461bcd60e51b81526004016108a090612b87565b60405180910390fd5b6011805460ff1916911515919091179055565b6060600080546108cb90612e9f565b80601f01602080910402602001604051908101604052809291908181526020018280546108f790612e9f565b80156109445780601f1061091957610100808354040283529160200191610944565b820191906000526020600020905b81548152906001019060200180831161092757829003601f168201915b5050505050905090565b60006109598261193f565b6109755760405162461bcd60e51b81526004016108a090612b3b565b506000908152600460205260409020546001600160a01b031690565b600d805461099e90612e9f565b80601f01602080910402602001604051908101604052809291908181526020018280546109ca90612e9f565b8015610a175780601f106109ec57610100808354040283529160200191610a17565b820191906000526020600020905b8154815290600101906020018083116109fa57829003601f168201915b505050505081565b6000610a2a82610eed565b9050806001600160a01b0316836001600160a01b03161415610a5e5760405162461bcd60e51b81526004016108a090612c84565b806001600160a01b0316610a7061193b565b6001600160a01b03161480610a8c5750610a8c8161078f61193b565b610aa85760405162461bcd60e51b81526004016108a0906129e6565b610ab2838361195c565b505050565b600e5481565b60085490565b60146020526000908152604090205481565b610ae6610ae061193b565b826119ca565b610b025760405162461bcd60e51b81526004016108a090612cf1565b610ab2838383611a4f565b6000610b1883610f3f565b8210610b365760405162461bcd60e51b81526004016108a0906127ce565b506001600160a01b03919091166000908152600660209081526040808320938352929052205490565b6000805b601254811015610bcf57826001600160a01b031660128281548110610b9857634e487b7160e01b600052603260045260246000fd5b6000918252602090912001546001600160a01b03161415610bbd57600191505061085c565b80610bc781612eda565b915050610b63565b50600092915050565b610be061193b565b6001600160a01b0316610bf1610fce565b6001600160a01b031614610c175760405162461bcd60e51b81526004016108a090612b87565b60118054911515620100000262ff000019909216919091179055565b610c3b61193b565b6001600160a01b0316610c4c610fce565b6001600160a01b031614610c725760405162461bcd60e51b81526004016108a090612b87565b6000336001600160a01b031647604051610c8b90612718565b60006040518083038185875af1925050503d8060008114610cc8576040519150601f19603f3d011682016040523d82523d6000602084013e610ccd565b606091505b5050905080610cdb57600080fd5b50565b610ab2838383604051806020016040528060008152506114b8565b60606000610d0683610f3f565b905060008167ffffffffffffffff811115610d3157634e487b7160e01b600052604160045260246000fd5b604051908082528060200260200182016040528015610d5a578160200160208202803683370190505b50905060005b82811015610daf57610d728582610b0d565b828281518110610d9257634e487b7160e01b600052603260045260246000fd5b602090810291909101015280610da781612eda565b915050610d60565b509392505050565b610dbf61193b565b6001600160a01b0316610dd0610fce565b6001600160a01b031614610df65760405162461bcd60e51b81526004016108a090612b87565b600e55565b6000610e05610abd565b8210610e235760405162461bcd60e51b81526004016108a090612d42565b60088281548110610e4457634e487b7160e01b600052603260045260246000fd5b90600052602060002001549050919050565b601154610100900460ff1681565b610e6c61193b565b6001600160a01b0316610e7d610fce565b6001600160a01b031614610ea35760405162461bcd60e51b81526004016108a090612b87565b8051610eb690600b906020840190612218565b5050565b60115460ff1681565b60138181548110610ed357600080fd5b6000918252602090912001546001600160a01b0316905081565b6000818152600260205260408120546001600160a01b0316806108595760405162461bcd60e51b81526004016108a090612a8d565b6011546301000000900460ff1681565b600b805461099e90612e9f565b60006001600160a01b038216610f675760405162461bcd60e51b81526004016108a090612a43565b506001600160a01b031660009081526003602052604090205490565b610f8b61193b565b6001600160a01b0316610f9c610fce565b6001600160a01b031614610fc25760405162461bcd60e51b81526004016108a090612b87565b610fcc6000611b7c565b565b600a546001600160a01b031690565b6060600180546108cb90612e9f565b60115462010000900460ff1681565b60115460ff161561101e5760405162461bcd60e51b81526004016108a090612bbc565b6000611028610abd565b90506000821161104a5760405162461bcd60e51b81526004016108a090612dc5565b600f546110578383612e11565b11156110755760405162461bcd60e51b81526004016108a090612ad6565b61107d610fce565b6001600160a01b0316336001600160a01b0316146113115760115462010000900460ff16151560011415611227576011805464ff00000000191690556110c233610b5f565b806110d157506110d13361188b565b1561113e576011805464ff0000000019166401000000001790556110f43361188b565b156110ff576000600e555b61110833610b5f565b1561111a576709935f581f050000600e555b611125816001612e11565b610258141561113e576011805462ff00ff191660011790555b601154640100000000900460ff166111685760405162461bcd60e51b81526004016108a090612d8e565b336000908152601460205260409020546010546111858483612e11565b11156111a35760405162461bcd60e51b81526004016108a0906128e8565b82600e546111b19190612e3d565b3410156111d05760405162461bcd60e51b81526004016108a090612cc5565b60015b838111611220573360009081526014602052604081208054916111f583612eda565b9091555061120e9050336112098386612e11565b611bce565b8061121881612eda565b9150506111d3565b505061130c565b610bb8611235826001612e11565b101561124c57670af6a4d07c8f0000600e55611292565b61177061125a826001612e11565b101561127157670c59ea48da190000600e55611292565b61177061127f826001612e11565b101561129257670c7d713b49da0000600e555b81600e546112a09190612e3d565b3410156112bf5760405162461bcd60e51b81526004016108a090612cc5565b60015b82811161130a573360009081526014602052604081208054916112e483612eda565b909155506112f89050336112098385612e11565b8061130281612eda565b9150506112c2565b505b610eb6565b81600e5461131f9190612e3d565b34101561133e5760405162461bcd60e51b81526004016108a090612cc5565b60015b828111610ab25733600090815260146020526040812080549161136383612eda565b909155506113779050336112098385612e11565b8061138181612eda565b915050611341565b61139161193b565b6001600160a01b0316826001600160a01b031614156113c25760405162461bcd60e51b81526004016108a090612963565b80600560006113cf61193b565b6001600160a01b03908116825260208083019390935260409182016000908120918716808252919093529120805460ff19169215159290921790915561141361193b565b6001600160a01b03167f17307eab39ab6107e8899845ad3d59bd9653f200f220920489ca2b5937696c318360405161144b91906127b0565b60405180910390a35050565b61145f61193b565b6001600160a01b0316611470610fce565b6001600160a01b0316146114965760405162461bcd60e51b81526004016108a090612b87565b6011805461ff001916610100179055565b601154640100000000900460ff1681565b6114c96114c361193b565b836119ca565b6114e55760405162461bcd60e51b81526004016108a090612cf1565b6114f184848484611be8565b50505050565b60128181548110610ed357600080fd5b60105481565b606061151a600e54611c1b565b905090565b600c805461099e90612e9f565b60606115378261193f565b6115535760405162461bcd60e51b81526004016108a090612c35565b601154610100900460ff166115f457600d805461156f90612e9f565b80601f016020809104026020016040519081016040528092919081815260200182805461159b90612e9f565b80156115e85780601f106115bd576101008083540402835291602001916115e8565b820191906000526020600020905b8154815290600101906020018083116115cb57829003601f168201915b5050505050905061085c565b60006115fe611d36565b9050600081511161161e576040518060200160405280600081525061164c565b8061162884611c1b565b600c60405160200161163c93929190612656565b6040516020818303038152906040525b9392505050565b61165b61193b565b6001600160a01b031661166c610fce565b6001600160a01b0316146116925760405162461bcd60e51b81526004016108a090612b87565b601055565b600f5481565b6116a561193b565b6001600160a01b03166116b6610fce565b6001600160a01b0316146116dc5760405162461bcd60e51b81526004016108a090612b87565b8051610eb690600c906020840190612218565b6001600160a01b03918216600090815260056020908152604080832093909416825291909152205460ff1690565b61172561193b565b6001600160a01b0316611736610fce565b6001600160a01b03161461175c5760405162461bcd60e51b81526004016108a090612b87565b6117686012600061229c565b610ab2601283836122ba565b61177c61193b565b6001600160a01b031661178d610fce565b6001600160a01b0316146117b35760405162461bcd60e51b81526004016108a090612b87565b6117bf6012600061229c565b610ab2601383836122ba565b6117d361193b565b6001600160a01b03166117e4610fce565b6001600160a01b03161461180a5760405162461bcd60e51b81526004016108a090612b87565b8051610eb690600d906020840190612218565b61182561193b565b6001600160a01b0316611836610fce565b6001600160a01b03161461185c5760405162461bcd60e51b81526004016108a090612b87565b6001600160a01b0381166118825760405162461bcd60e51b81526004016108a09061286b565b610cdb81611b7c565b6000805b601354811015610bcf57826001600160a01b0316601382815481106118c457634e487b7160e01b600052603260045260246000fd5b6000918252602090912001546001600160a01b031614156118e957600191505061085c565b806118f381612eda565b91505061188f565b60006001600160e01b031982166380ac58cd60e01b148061192c57506001600160e01b03198216635b5e139f60e01b145b80610859575061085982611d45565b3390565b6000908152600260205260409020546001600160a01b0316151590565b600081815260046020526040902080546001600160a01b0319166001600160a01b038416908117909155819061199182610eed565b6001600160a01b03167f8c5be1e5ebec7d5bd14f71427d1e84f3dd0314c0f7b2291e5b200ac8c7c3b92560405160405180910390a45050565b60006119d58261193f565b6119f15760405162461bcd60e51b81526004016108a09061299a565b60006119fc83610eed565b9050806001600160a01b0316846001600160a01b03161480611a375750836001600160a01b0316611a2c8461094e565b6001600160a01b0316145b80611a475750611a4781856116ef565b949350505050565b826001600160a01b0316611a6282610eed565b6001600160a01b031614611a885760405162461bcd60e51b81526004016108a090612bec565b6001600160a01b038216611aae5760405162461bcd60e51b81526004016108a09061291f565b611ab9838383611d5e565b611ac460008261195c565b6001600160a01b0383166000908152600360205260408120805460019290611aed908490612e5c565b90915550506001600160a01b0382166000908152600360205260408120805460019290611b1b908490612e11565b909155505060008181526002602052604080822080546001600160a01b0319166001600160a01b0386811691821790925591518493918716917fddf252ad1be2c89b69c2b068fc378daa952ba7f163c4a11628f55a4df523b3ef91a4505050565b600a80546001600160a01b038381166001600160a01b0319831681179093556040519116919082907f8be0079c531659141344cd1fd0a4f28419497f9722a3daafe3b4186f6b6457e090600090a35050565b610eb6828260405180602001604052806000815250611de7565b611bf3848484611a4f565b611bff84848484611e1a565b6114f15760405162461bcd60e51b81526004016108a090612819565b606081611c4057506040805180820190915260018152600360fc1b602082015261085c565b8160005b8115611c6a5780611c5481612eda565b9150611c639050600a83612e29565b9150611c44565b60008167ffffffffffffffff811115611c9357634e487b7160e01b600052604160045260246000fd5b6040519080825280601f01601f191660200182016040528015611cbd576020820181803683370190505b5090505b8415611a4757611cd2600183612e5c565b9150611cdf600a86612ef5565b611cea906030612e11565b60f81b818381518110611d0d57634e487b7160e01b600052603260045260246000fd5b60200101906001600160f81b031916908160001a905350611d2f600a86612e29565b9450611cc1565b6060600b80546108cb90612e9f565b6001600160e01b031981166301ffc9a760e01b14919050565b611d69838383610ab2565b6001600160a01b038316611d8557611d8081611f35565b611da8565b816001600160a01b0316836001600160a01b031614611da857611da88382611f79565b6001600160a01b038216611dc457611dbf81612016565b610ab2565b826001600160a01b0316826001600160a01b031614610ab257610ab282826120ef565b611df18383612133565b611dfe6000848484611e1a565b610ab25760405162461bcd60e51b81526004016108a090612819565b6000611e2e846001600160a01b0316612212565b15611f2a57836001600160a01b031663150b7a02611e4a61193b565b8786866040518563ffffffff1660e01b8152600401611e6c949392919061272f565b602060405180830381600087803b158015611e8657600080fd5b505af1925050508015611eb6575060408051601f3d908101601f19168201909252611eb3918101906125b0565b60015b611f10573d808015611ee4576040519150601f19603f3d011682016040523d82523d6000602084013e611ee9565b606091505b508051611f085760405162461bcd60e51b81526004016108a090612819565b805181602001fd5b6001600160e01b031916630a85bd0160e11b149050611a47565b506001949350505050565b600880546000838152600960205260408120829055600182018355919091527ff3f7a9fe364faab93b216da50a3214154f22a0a2b415b23a84c8169e8b636ee30155565b60006001611f8684610f3f565b611f909190612e5c565b600083815260076020526040902054909150808214611fe3576001600160a01b03841660009081526006602090815260408083208584528252808320548484528184208190558352600790915290208190555b5060009182526007602090815260408084208490556001600160a01b039094168352600681528383209183525290812055565b60085460009061202890600190612e5c565b6000838152600960205260408120546008805493945090928490811061205e57634e487b7160e01b600052603260045260246000fd5b90600052602060002001549050806008838154811061208d57634e487b7160e01b600052603260045260246000fd5b60009182526020808320909101929092558281526009909152604080822084905585825281205560088054806120d357634e487b7160e01b600052603160045260246000fd5b6001900381819060005260206000200160009055905550505050565b60006120fa83610f3f565b6001600160a01b039093166000908152600660209081526040808320868452825280832085905593825260079052919091209190915550565b6001600160a01b0382166121595760405162461bcd60e51b81526004016108a090612b06565b6121628161193f565b1561217f5760405162461bcd60e51b81526004016108a0906128b1565b61218b60008383611d5e565b6001600160a01b03821660009081526003602052604081208054600192906121b4908490612e11565b909155505060008181526002602052604080822080546001600160a01b0319166001600160a01b03861690811790915590518392907fddf252ad1be2c89b69c2b068fc378daa952ba7f163c4a11628f55a4df523b3ef908290a45050565b3b151590565b82805461222490612e9f565b90600052602060002090601f016020900481019282612246576000855561228c565b82601f1061225f57805160ff191683800117855561228c565b8280016001018555821561228c579182015b8281111561228c578251825591602001919060010190612271565b5061229892915061230d565b5090565b5080546000825590600052602060002090810190610cdb919061230d565b82805482825590600052602060002090810192821561228c579160200282015b8281111561228c5781546001600160a01b0319166001600160a01b038435161782556020909201916001909101906122da565b5b80821115612298576000815560010161230e565b600067ffffffffffffffff8084111561233d5761233d612f35565b604051601f8501601f19168101602001828111828210171561236157612361612f35565b60405284815291508183850186101561237957600080fd5b8484602083013760006020868301015250509392505050565b80356001600160a01b038116811461085c57600080fd5b8035801515811461085c57600080fd5b6000602082840312156123ca578081fd5b61164c82612392565b600080604083850312156123e5578081fd5b6123ee83612392565b91506123fc60208401612392565b90509250929050565b600080600060608486031215612419578081fd5b61242284612392565b925061243060208501612392565b9150604084013590509250925092565b60008060008060808587031215612455578081fd5b61245e85612392565b935061246c60208601612392565b925060408501359150606085013567ffffffffffffffff81111561248e578182fd5b8501601f8101871361249e578182fd5b6124ad87823560208401612322565b91505092959194509250565b600080604083850312156124cb578182fd5b6124d483612392565b91506123fc602084016123a9565b600080604083850312156124f4578182fd5b6124fd83612392565b946020939093013593505050565b6000806020838503121561251d578182fd5b823567ffffffffffffffff80821115612534578384fd5b818501915085601f830112612547578384fd5b813581811115612555578485fd5b8660208083028501011115612568578485fd5b60209290920196919550909350505050565b60006020828403121561258b578081fd5b61164c826123a9565b6000602082840312156125a5578081fd5b813561164c81612f4b565b6000602082840312156125c1578081fd5b815161164c81612f4b565b6000602082840312156125dd578081fd5b813567ffffffffffffffff8111156125f3578182fd5b8201601f81018413612603578182fd5b611a4784823560208401612322565b600060208284031215612623578081fd5b5035919050565b60008151808452612642816020860160208601612e73565b601f01601f19169290920160200192915050565b6000845160206126698285838a01612e73565b85519184019161267c8184848a01612e73565b855492019183906002810460018083168061269857607f831692505b8583108114156126b657634e487b7160e01b88526022600452602488fd5b8080156126ca57600181146126db57612707565b60ff19851688528388019550612707565b6126e48b612e05565b895b858110156126ff5781548a8201529084019088016126e6565b505083880195505b50939b9a5050505050505050505050565b90565b6001600160a01b0391909116815260200190565b6001600160a01b03858116825284166020820152604081018390526080606082018190526000906127629083018461262a565b9695505050505050565b6020808252825182820181905260009190848201906040850190845b818110156127a457835183529284019291840191600101612788565b50909695505050505050565b901515815260200190565b60006020825261164c602083018461262a565b6020808252602b908201527f455243373231456e756d657261626c653a206f776e657220696e646578206f7560408201526a74206f6620626f756e647360a81b606082015260800190565b60208082526032908201527f4552433732313a207472616e7366657220746f206e6f6e20455243373231526560408201527131b2b4bb32b91034b6b83632b6b2b73a32b960711b606082015260800190565b60208082526026908201527f4f776e61626c653a206e6577206f776e657220697320746865207a65726f206160408201526564647265737360d01b606082015260800190565b6020808252601c908201527f4552433732313a20746f6b656e20616c7265616479206d696e74656400000000604082015260600190565b6020808252601c908201527f6d6178204e465420706572206164647265737320657863656564656400000000604082015260600190565b60208082526024908201527f4552433732313a207472616e7366657220746f20746865207a65726f206164646040820152637265737360e01b606082015260800190565b60208082526019908201527f4552433732313a20617070726f766520746f2063616c6c657200000000000000604082015260600190565b6020808252602c908201527f4552433732313a206f70657261746f7220717565727920666f72206e6f6e657860408201526b34b9ba32b73a103a37b5b2b760a11b606082015260800190565b60208082526038908201527f4552433732313a20617070726f76652063616c6c6572206973206e6f74206f7760408201527f6e6572206e6f7220617070726f76656420666f7220616c6c0000000000000000606082015260800190565b6020808252602a908201527f4552433732313a2062616c616e636520717565727920666f7220746865207a65604082015269726f206164647265737360b01b606082015260800190565b60208082526029908201527f4552433732313a206f776e657220717565727920666f72206e6f6e657869737460408201526832b73a103a37b5b2b760b91b606082015260800190565b6020808252601690820152751b585e08139195081b1a5b5a5d08195e18d95959195960521b604082015260600190565b6020808252818101527f4552433732313a206d696e7420746f20746865207a65726f2061646472657373604082015260600190565b6020808252602c908201527f4552433732313a20617070726f76656420717565727920666f72206e6f6e657860408201526b34b9ba32b73a103a37b5b2b760a11b606082015260800190565b6020808252818101527f4f776e61626c653a2063616c6c6572206973206e6f7420746865206f776e6572604082015260600190565b6020808252601690820152751d1a194818dbdb9d1c9858dd081a5cc81c185d5cd95960521b604082015260600190565b60208082526029908201527f4552433732313a207472616e73666572206f6620746f6b656e2074686174206960408201526839903737ba1037bbb760b91b606082015260800190565b6020808252602f908201527f4552433732314d657461646174613a2055524920717565727920666f72206e6f60408201526e3732bc34b9ba32b73a103a37b5b2b760891b606082015260800190565b60208082526021908201527f4552433732313a20617070726f76616c20746f2063757272656e74206f776e656040820152603960f91b606082015260800190565b602080825260129082015271696e73756666696369656e742066756e647360701b604082015260600190565b60208082526031908201527f4552433732313a207472616e736665722063616c6c6572206973206e6f74206f6040820152701ddb995c881b9bdc88185c1c1c9bdd9959607a1b606082015260800190565b6020808252602c908201527f455243373231456e756d657261626c653a20676c6f62616c20696e646578206f60408201526b7574206f6620626f756e647360a01b606082015260800190565b60208082526017908201527f75736572206973206e6f742077686974656c6973746564000000000000000000604082015260600190565b6020808252601b908201527f6e65656420746f206d696e74206174206c656173742031204e46540000000000604082015260600190565b90815260200190565b60009081526020902090565b60008219821115612e2457612e24612f09565b500190565b600082612e3857612e38612f1f565b500490565b6000816000190483118215151615612e5757612e57612f09565b500290565b600082821015612e6e57612e6e612f09565b500390565b60005b83811015612e8e578181015183820152602001612e76565b838111156114f15750506000910152565b600281046001821680612eb357607f821691505b60208210811415612ed457634e487b7160e01b600052602260045260246000fd5b50919050565b6000600019821415612eee57612eee612f09565b5060010190565b600082612f0457612f04612f1f565b500690565b634e487b7160e01b600052601160045260246000fd5b634e487b7160e01b600052601260045260246000fd5b634e487b7160e01b600052604160045260246000fd5b6001600160e01b031981168114610cdb57600080fdfea2646970667358221220502325388548274abae2f3506f2f68e54bb2c4f2d5542601a1a135c4cfb8232064736f6c63430008000033",
  "immutableReferences": {},
  "source": "// SPDX-License-Identifier: GPL-3.0\n\npragma solidity >=0.7.0 <0.9.0;\n\nimport \"@openzeppelin/contracts/token/ERC721/extensions/ERC721Enumerable.sol\";\nimport \"@openzeppelin/contracts/access/Ownable.sol\";\n\ncontract SmartContract is ERC721Enumerable, Ownable {\n  using Strings for uint256;\n\n  string public baseURI;\n  string public baseExtension = \".json\";\n  string public notRevealedUri;\n  uint256 public cost = 0.069 ether;\n  uint256 public maxSupply = 9999;\n  uint256 public nftPerAddressLimit = 1;\n  bool public paused = false;\n  bool public revealed = false;\n  bool public onlyWhitelisted = true;\n  bool public onlyVIP = true;\n  bool public _canMint = false;\n  address[] public whitelistedAddresses;\n  address[] public vipAddresses;\n  mapping(address => uint256) public addressMintedBalance;\n\n\n  constructor(\n    string memory _name,\n    string memory _symbol,\n    string memory _initBaseURI,\n    string memory _initNotRevealedUri\n  ) ERC721(_name, _symbol) {\n    setBaseURI(_initBaseURI);\n    setNotRevealedURI(_initNotRevealedUri);\n  }\n\n  // internal\n  function _baseURI() internal view virtual override returns (string memory) {\n    return baseURI;\n  }\n\n  // public\n  function mint(uint256 _mintAmount) public payable {\n    require(!paused, \"the contract is paused\");\n    uint256 supply = totalSupply();\n    require(_mintAmount > 0, \"need to mint at least 1 NFT\");\n  //  require(_mintAmount <= maxMintAmount, \"max mint amount per session exceeded\");\n    require(supply + _mintAmount <= maxSupply, \"max NFT limit exceeded\");\n\n    if (msg.sender != owner()) {\n        if(onlyWhitelisted == true) {\n             _canMint = false;\n            if(isWhitelisted(msg.sender) || isVIP(msg.sender))\n            {\n                \n                _canMint = true;\n                if(isVIP(msg.sender))\n                {\n                    cost = 0.00 ether;\n                }\n                \n                if(isWhitelisted(msg.sender))\n                {\n                    cost = 0.69 ether;\n                }\n                if((supply + 1) == 600)\n                {\n                     onlyWhitelisted = false;\n                     paused = true;\n                }\n                \n                \n            }\n            require(_canMint, \"user is not whitelisted\");\n            uint256 ownerMintedCount = addressMintedBalance[msg.sender];\n            require(ownerMintedCount + _mintAmount <= nftPerAddressLimit, \"max NFT per address exceeded\");\n            require(msg.value >= cost * _mintAmount, \"insufficient funds\");\n            for (uint256 i = 1; i <= _mintAmount; i++) {\n            addressMintedBalance[msg.sender]++;\n            _safeMint(msg.sender, supply + i);\n    }\n        }\n        else\n        {\n                if((supply + 1) < 3000)\n                {\n                    cost = 0.79 ether;\n                }\n                else if((supply + 1) < 6000 )\n                {\n                    cost = 0.89 ether;\n                }\n                else if((supply + 1) < 6000)\n                {\n                    cost = 0.90 ether;\n                }\n             require(msg.value >= cost * _mintAmount, \"insufficient funds\");\n             for (uint256 i = 1; i <= _mintAmount; i++) {\n             addressMintedBalance[msg.sender]++;\n             _safeMint(msg.sender, supply + i); }\n        }\n    }\n    else\n    {\n        require(msg.value >= cost * _mintAmount, \"insufficient funds\");\n        for (uint256 i = 1; i <= _mintAmount; i++) {\n        addressMintedBalance[msg.sender]++;\n        _safeMint(msg.sender, supply + i);\n    }\n        \n    }\n    \n    // for (uint256 i = 1; i <= _mintAmount; i++) {\n    //     addressMintedBalance[msg.sender]++;\n    //   _safeMint(msg.sender, supply + i);\n    // }\n  }\n  \n  function getCost() public view returns(string memory)\n  {\n      return cost.toString();\n  }\n  \n  function isWhitelisted(address _user) public view returns (bool) {\n    for (uint i = 0; i < whitelistedAddresses.length; i++) {\n      if (whitelistedAddresses[i] == _user) {\n          return true;\n      }\n    }\n    return false;\n  }\n  \n    function isVIP(address _user) public view returns (bool) {\n    for (uint i = 0; i < vipAddresses.length; i++) {\n      if (vipAddresses[i] == _user) {\n          return true;\n      }\n    }\n    return false;\n  }\n\n  function walletOfOwner(address _owner)\n    public\n    view\n    returns (uint256[] memory)\n  {\n    uint256 ownerTokenCount = balanceOf(_owner);\n    uint256[] memory tokenIds = new uint256[](ownerTokenCount);\n    for (uint256 i; i < ownerTokenCount; i++) {\n      tokenIds[i] = tokenOfOwnerByIndex(_owner, i);\n    }\n    return tokenIds;\n  }\n\n  function tokenURI(uint256 tokenId)\n    public\n    view\n    virtual\n    override\n    returns (string memory)\n  {\n    require(\n      _exists(tokenId),\n      \"ERC721Metadata: URI query for nonexistent token\"\n    );\n    \n    if(revealed == false) {\n        return notRevealedUri;\n    }\n\n    string memory currentBaseURI = _baseURI();\n    return bytes(currentBaseURI).length > 0\n        ? string(abi.encodePacked(currentBaseURI, tokenId.toString(), baseExtension))\n        : \"\";\n  }\n\n  //only owner\n  function reveal() public onlyOwner() {\n      revealed = true;\n  }\n  \n  function setNftPerAddressLimit(uint256 _limit) public onlyOwner() {\n    nftPerAddressLimit = _limit;\n  }\n  \n  function setCost(uint256 _newCost) public onlyOwner() {\n    cost = _newCost;\n  }\n\n//   function setmaxMintAmount(uint256 _newmaxMintAmount) public onlyOwner() {\n//     maxMintAmount = _newmaxMintAmount;\n//   }\n\n  function setBaseURI(string memory _newBaseURI) public onlyOwner {\n    baseURI = _newBaseURI;\n  }\n\n  function setBaseExtension(string memory _newBaseExtension) public onlyOwner {\n    baseExtension = _newBaseExtension;\n  }\n  \n  function setNotRevealedURI(string memory _notRevealedURI) public onlyOwner {\n    notRevealedUri = _notRevealedURI;\n  }\n\n  function pause(bool _state) public onlyOwner {\n    paused = _state;\n  }\n  \n  function setOnlyWhitelisted(bool _state) public onlyOwner {\n    onlyWhitelisted = _state;\n  }\n  \n  function whitelistUsers(address[] calldata _users) public onlyOwner {\n    delete whitelistedAddresses;\n    whitelistedAddresses = _users;\n  }\n \n   function vipUsers(address[] calldata _users) public onlyOwner {\n    delete whitelistedAddresses;\n    vipAddresses = _users;\n  }\n  \n  function withdraw() public payable onlyOwner {\n    (bool success, ) = payable(msg.sender).call{value: address(this).balance}(\"\");\n    require(success);\n  }\n}",
  "sourcePath": "C:\\Users\\deon\\Documents\\GitHub\\rickfcks\\contracts\\SmartContract.sol",
  "compiler": {
    "name": "solc",
    "version": "0.8.0+commit.c7dfd78e.Emscripten.clang"
  },
  "schemaVersion": "3.4.3",
  "updatedAt": "2021-10-18T02:00:58.260Z",
  "networkType": "ethereum",
  "devdoc": {
    "kind": "dev",
    "methods": {
      "approve(address,uint256)": {
        "details": "See {IERC721-approve}."
      },
      "balanceOf(address)": {
        "details": "See {IERC721-balanceOf}."
      },
      "getApproved(uint256)": {
        "details": "See {IERC721-getApproved}."
      },
      "isApprovedForAll(address,address)": {
        "details": "See {IERC721-isApprovedForAll}."
      },
      "name()": {
        "details": "See {IERC721Metadata-name}."
      },
      "owner()": {
        "details": "Returns the address of the current owner."
      },
      "ownerOf(uint256)": {
        "details": "See {IERC721-ownerOf}."
      },
      "renounceOwnership()": {
        "details": "Leaves the contract without owner. It will not be possible to call `onlyOwner` functions anymore. Can only be called by the current owner. NOTE: Renouncing ownership will leave the contract without an owner, thereby removing any functionality that is only available to the owner."
      },
      "safeTransferFrom(address,address,uint256)": {
        "details": "See {IERC721-safeTransferFrom}."
      },
      "safeTransferFrom(address,address,uint256,bytes)": {
        "details": "See {IERC721-safeTransferFrom}."
      },
      "setApprovalForAll(address,bool)": {
        "details": "See {IERC721-setApprovalForAll}."
      },
      "supportsInterface(bytes4)": {
        "details": "See {IERC165-supportsInterface}."
      },
      "symbol()": {
        "details": "See {IERC721Metadata-symbol}."
      },
      "tokenByIndex(uint256)": {
        "details": "See {IERC721Enumerable-tokenByIndex}."
      },
      "tokenOfOwnerByIndex(address,uint256)": {
        "details": "See {IERC721Enumerable-tokenOfOwnerByIndex}."
      },
      "tokenURI(uint256)": {
        "details": "See {IERC721Metadata-tokenURI}."
      },
      "totalSupply()": {
        "details": "See {IERC721Enumerable-totalSupply}."
      },
      "transferFrom(address,address,uint256)": {
        "details": "See {IERC721-transferFrom}."
      },
      "transferOwnership(address)": {
        "details": "Transfers ownership of the contract to a new account (`newOwner`). Can only be called by the current owner."
      }
    },
    "version": 1
  },
  "userdoc": {
    "kind": "user",
    "methods": {},
    "version": 1
  }
}