{
  "contractName": "SmartContract",
  "abi": [
    {
      "inputs": [
        {
          "internalType": "string",
          "name": "_name",
          "type": "string"
        },
        {
          "internalType": "string",
          "name": "_symbol",
          "type": "string"
        },
        {
          "internalType": "string",
          "name": "_initBaseURI",
          "type": "string"
        },
        {
          "internalType": "string",
          "name": "_initNotRevealedUri",
          "type": "string"
        }
      ],
      "stateMutability": "nonpayable",
      "type": "constructor"
    },
    {
      "anonymous": false,
      "inputs": [
        {
          "indexed": true,
          "internalType": "address",
          "name": "owner",
          "type": "address"
        },
        {
          "indexed": true,
          "internalType": "address",
          "name": "approved",
          "type": "address"
        },
        {
          "indexed": true,
          "internalType": "uint256",
          "name": "tokenId",
          "type": "uint256"
        }
      ],
      "name": "Approval",
      "type": "event"
    },
    {
      "anonymous": false,
      "inputs": [
        {
          "indexed": true,
          "internalType": "address",
          "name": "owner",
          "type": "address"
        },
        {
          "indexed": true,
          "internalType": "address",
          "name": "operator",
          "type": "address"
        },
        {
          "indexed": false,
          "internalType": "bool",
          "name": "approved",
          "type": "bool"
        }
      ],
      "name": "ApprovalForAll",
      "type": "event"
    },
    {
      "anonymous": false,
      "inputs": [
        {
          "indexed": true,
          "internalType": "address",
          "name": "previousOwner",
          "type": "address"
        },
        {
          "indexed": true,
          "internalType": "address",
          "name": "newOwner",
          "type": "address"
        }
      ],
      "name": "OwnershipTransferred",
      "type": "event"
    },
    {
      "anonymous": false,
      "inputs": [
        {
          "indexed": true,
          "internalType": "address",
          "name": "from",
          "type": "address"
        },
        {
          "indexed": true,
          "internalType": "address",
          "name": "to",
          "type": "address"
        },
        {
          "indexed": true,
          "internalType": "uint256",
          "name": "tokenId",
          "type": "uint256"
        }
      ],
      "name": "Transfer",
      "type": "event"
    },
    {
      "inputs": [
        {
          "internalType": "address",
          "name": "",
          "type": "address"
        }
      ],
      "name": "addressMintedBalance",
      "outputs": [
        {
          "internalType": "uint256",
          "name": "",
          "type": "uint256"
        }
      ],
      "stateMutability": "view",
      "type": "function",
      "constant": true
    },
    {
      "inputs": [
        {
          "internalType": "address",
          "name": "to",
          "type": "address"
        },
        {
          "internalType": "uint256",
          "name": "tokenId",
          "type": "uint256"
        }
      ],
      "name": "approve",
      "outputs": [],
      "stateMutability": "nonpayable",
      "type": "function"
    },
    {
      "inputs": [
        {
          "internalType": "address",
          "name": "owner",
          "type": "address"
        }
      ],
      "name": "balanceOf",
      "outputs": [
        {
          "internalType": "uint256",
          "name": "",
          "type": "uint256"
        }
      ],
      "stateMutability": "view",
      "type": "function",
      "constant": true
    },
    {
      "inputs": [],
      "name": "baseExtension",
      "outputs": [
        {
          "internalType": "string",
          "name": "",
          "type": "string"
        }
      ],
      "stateMutability": "view",
      "type": "function",
      "constant": true
    },
    {
      "inputs": [],
      "name": "baseURI",
      "outputs": [
        {
          "internalType": "string",
          "name": "",
          "type": "string"
        }
      ],
      "stateMutability": "view",
      "type": "function",
      "constant": true
    },
    {
      "inputs": [],
      "name": "cost",
      "outputs": [
        {
          "internalType": "uint256",
          "name": "",
          "type": "uint256"
        }
      ],
      "stateMutability": "view",
      "type": "function",
      "constant": true
    },
    {
      "inputs": [
        {
          "internalType": "uint256",
          "name": "tokenId",
          "type": "uint256"
        }
      ],
      "name": "getApproved",
      "outputs": [
        {
          "internalType": "address",
          "name": "",
          "type": "address"
        }
      ],
      "stateMutability": "view",
      "type": "function",
      "constant": true
    },
    {
      "inputs": [
        {
          "internalType": "address",
          "name": "owner",
          "type": "address"
        },
        {
          "internalType": "address",
          "name": "operator",
          "type": "address"
        }
      ],
      "name": "isApprovedForAll",
      "outputs": [
        {
          "internalType": "bool",
          "name": "",
          "type": "bool"
        }
      ],
      "stateMutability": "view",
      "type": "function",
      "constant": true
    },
    {
      "inputs": [],
      "name": "maxMintAmount",
      "outputs": [
        {
          "internalType": "uint256",
          "name": "",
          "type": "uint256"
        }
      ],
      "stateMutability": "view",
      "type": "function",
      "constant": true
    },
    {
      "inputs": [],
      "name": "maxSupply",
      "outputs": [
        {
          "internalType": "uint256",
          "name": "",
          "type": "uint256"
        }
      ],
      "stateMutability": "view",
      "type": "function",
      "constant": true
    },
    {
      "inputs": [],
      "name": "name",
      "outputs": [
        {
          "internalType": "string",
          "name": "",
          "type": "string"
        }
      ],
      "stateMutability": "view",
      "type": "function",
      "constant": true
    },
    {
      "inputs": [],
      "name": "nftPerAddressLimit",
      "outputs": [
        {
          "internalType": "uint256",
          "name": "",
          "type": "uint256"
        }
      ],
      "stateMutability": "view",
      "type": "function",
      "constant": true
    },
    {
      "inputs": [],
      "name": "nftPerAddressLimitPreMint",
      "outputs": [
        {
          "internalType": "uint256",
          "name": "",
          "type": "uint256"
        }
      ],
      "stateMutability": "view",
      "type": "function",
      "constant": true
    },
    {
      "inputs": [],
      "name": "notRevealedUri",
      "outputs": [
        {
          "internalType": "string",
          "name": "",
          "type": "string"
        }
      ],
      "stateMutability": "view",
      "type": "function",
      "constant": true
    },
    {
      "inputs": [],
      "name": "onlyWhitelisted",
      "outputs": [
        {
          "internalType": "bool",
          "name": "",
          "type": "bool"
        }
      ],
      "stateMutability": "view",
      "type": "function",
      "constant": true
    },
    {
      "inputs": [],
      "name": "owner",
      "outputs": [
        {
          "internalType": "address",
          "name": "",
          "type": "address"
        }
      ],
      "stateMutability": "view",
      "type": "function",
      "constant": true
    },
    {
      "inputs": [
        {
          "internalType": "uint256",
          "name": "tokenId",
          "type": "uint256"
        }
      ],
      "name": "ownerOf",
      "outputs": [
        {
          "internalType": "address",
          "name": "",
          "type": "address"
        }
      ],
      "stateMutability": "view",
      "type": "function",
      "constant": true
    },
    {
      "inputs": [],
      "name": "paused",
      "outputs": [
        {
          "internalType": "bool",
          "name": "",
          "type": "bool"
        }
      ],
      "stateMutability": "view",
      "type": "function",
      "constant": true
    },
    {
      "inputs": [],
      "name": "renounceOwnership",
      "outputs": [],
      "stateMutability": "nonpayable",
      "type": "function"
    },
    {
      "inputs": [],
      "name": "revealed",
      "outputs": [
        {
          "internalType": "bool",
          "name": "",
          "type": "bool"
        }
      ],
      "stateMutability": "view",
      "type": "function",
      "constant": true
    },
    {
      "inputs": [
        {
          "internalType": "address",
          "name": "from",
          "type": "address"
        },
        {
          "internalType": "address",
          "name": "to",
          "type": "address"
        },
        {
          "internalType": "uint256",
          "name": "tokenId",
          "type": "uint256"
        }
      ],
      "name": "safeTransferFrom",
      "outputs": [],
      "stateMutability": "nonpayable",
      "type": "function"
    },
    {
      "inputs": [
        {
          "internalType": "address",
          "name": "from",
          "type": "address"
        },
        {
          "internalType": "address",
          "name": "to",
          "type": "address"
        },
        {
          "internalType": "uint256",
          "name": "tokenId",
          "type": "uint256"
        },
        {
          "internalType": "bytes",
          "name": "_data",
          "type": "bytes"
        }
      ],
      "name": "safeTransferFrom",
      "outputs": [],
      "stateMutability": "nonpayable",
      "type": "function"
    },
    {
      "inputs": [
        {
          "internalType": "address",
          "name": "operator",
          "type": "address"
        },
        {
          "internalType": "bool",
          "name": "approved",
          "type": "bool"
        }
      ],
      "name": "setApprovalForAll",
      "outputs": [],
      "stateMutability": "nonpayable",
      "type": "function"
    },
    {
      "inputs": [
        {
          "internalType": "bytes4",
          "name": "interfaceId",
          "type": "bytes4"
        }
      ],
      "name": "supportsInterface",
      "outputs": [
        {
          "internalType": "bool",
          "name": "",
          "type": "bool"
        }
      ],
      "stateMutability": "view",
      "type": "function",
      "constant": true
    },
    {
      "inputs": [],
      "name": "symbol",
      "outputs": [
        {
          "internalType": "string",
          "name": "",
          "type": "string"
        }
      ],
      "stateMutability": "view",
      "type": "function",
      "constant": true
    },
    {
      "inputs": [
        {
          "internalType": "uint256",
          "name": "index",
          "type": "uint256"
        }
      ],
      "name": "tokenByIndex",
      "outputs": [
        {
          "internalType": "uint256",
          "name": "",
          "type": "uint256"
        }
      ],
      "stateMutability": "view",
      "type": "function",
      "constant": true
    },
    {
      "inputs": [
        {
          "internalType": "address",
          "name": "owner",
          "type": "address"
        },
        {
          "internalType": "uint256",
          "name": "index",
          "type": "uint256"
        }
      ],
      "name": "tokenOfOwnerByIndex",
      "outputs": [
        {
          "internalType": "uint256",
          "name": "",
          "type": "uint256"
        }
      ],
      "stateMutability": "view",
      "type": "function",
      "constant": true
    },
    {
      "inputs": [],
      "name": "totalSupply",
      "outputs": [
        {
          "internalType": "uint256",
          "name": "",
          "type": "uint256"
        }
      ],
      "stateMutability": "view",
      "type": "function",
      "constant": true
    },
    {
      "inputs": [
        {
          "internalType": "address",
          "name": "from",
          "type": "address"
        },
        {
          "internalType": "address",
          "name": "to",
          "type": "address"
        },
        {
          "internalType": "uint256",
          "name": "tokenId",
          "type": "uint256"
        }
      ],
      "name": "transferFrom",
      "outputs": [],
      "stateMutability": "nonpayable",
      "type": "function"
    },
    {
      "inputs": [
        {
          "internalType": "address",
          "name": "newOwner",
          "type": "address"
        }
      ],
      "name": "transferOwnership",
      "outputs": [],
      "stateMutability": "nonpayable",
      "type": "function"
    },
    {
      "inputs": [
        {
          "internalType": "uint256",
          "name": "",
          "type": "uint256"
        }
      ],
      "name": "vipAddresses",
      "outputs": [
        {
          "internalType": "address",
          "name": "",
          "type": "address"
        }
      ],
      "stateMutability": "view",
      "type": "function",
      "constant": true
    },
    {
      "inputs": [
        {
          "internalType": "uint256",
          "name": "",
          "type": "uint256"
        }
      ],
      "name": "vipMaxMinted",
      "outputs": [
        {
          "internalType": "uint256",
          "name": "",
          "type": "uint256"
        }
      ],
      "stateMutability": "view",
      "type": "function",
      "constant": true
    },
    {
      "inputs": [
        {
          "internalType": "uint256",
          "name": "",
          "type": "uint256"
        }
      ],
      "name": "whitelistedAddresses",
      "outputs": [
        {
          "internalType": "address",
          "name": "",
          "type": "address"
        }
      ],
      "stateMutability": "view",
      "type": "function",
      "constant": true
    },
    {
      "inputs": [
        {
          "internalType": "uint256",
          "name": "_mintAmount",
          "type": "uint256"
        }
      ],
      "name": "mint",
      "outputs": [],
      "stateMutability": "payable",
      "type": "function",
      "payable": true
    },
    {
      "inputs": [
        {
          "internalType": "address",
          "name": "_user",
          "type": "address"
        }
      ],
      "name": "isWhitelisted",
      "outputs": [
        {
          "internalType": "bool",
          "name": "",
          "type": "bool"
        }
      ],
      "stateMutability": "view",
      "type": "function",
      "constant": true
    },
    {
      "inputs": [
        {
          "internalType": "address",
          "name": "_user",
          "type": "address"
        }
      ],
      "name": "isVIP",
      "outputs": [
        {
          "internalType": "bool",
          "name": "",
          "type": "bool"
        }
      ],
      "stateMutability": "view",
      "type": "function",
      "constant": true
    },
    {
      "inputs": [
        {
          "internalType": "address",
          "name": "_user",
          "type": "address"
        }
      ],
      "name": "vipMintAmount",
      "outputs": [
        {
          "internalType": "uint256",
          "name": "",
          "type": "uint256"
        }
      ],
      "stateMutability": "view",
      "type": "function",
      "constant": true
    },
    {
      "inputs": [
        {
          "internalType": "address",
          "name": "_owner",
          "type": "address"
        }
      ],
      "name": "walletOfOwner",
      "outputs": [
        {
          "internalType": "uint256[]",
          "name": "",
          "type": "uint256[]"
        }
      ],
      "stateMutability": "view",
      "type": "function",
      "constant": true
    },
    {
      "inputs": [
        {
          "internalType": "uint256",
          "name": "tokenId",
          "type": "uint256"
        }
      ],
      "name": "tokenURI",
      "outputs": [
        {
          "internalType": "string",
          "name": "",
          "type": "string"
        }
      ],
      "stateMutability": "view",
      "type": "function",
      "constant": true
    },
    {
      "inputs": [],
      "name": "reveal",
      "outputs": [],
      "stateMutability": "nonpayable",
      "type": "function"
    },
    {
      "inputs": [
        {
          "internalType": "uint256",
          "name": "_limit",
          "type": "uint256"
        }
      ],
      "name": "setNftPerAddressLimit",
      "outputs": [],
      "stateMutability": "nonpayable",
      "type": "function"
    },
    {
      "inputs": [
        {
          "internalType": "uint256",
          "name": "_newCost",
          "type": "uint256"
        }
      ],
      "name": "setCost",
      "outputs": [],
      "stateMutability": "nonpayable",
      "type": "function"
    },
    {
      "inputs": [
        {
          "internalType": "uint256",
          "name": "_newmaxMintAmount",
          "type": "uint256"
        }
      ],
      "name": "setmaxMintAmount",
      "outputs": [],
      "stateMutability": "nonpayable",
      "type": "function"
    },
    {
      "inputs": [
        {
          "internalType": "string",
          "name": "_newBaseURI",
          "type": "string"
        }
      ],
      "name": "setBaseURI",
      "outputs": [],
      "stateMutability": "nonpayable",
      "type": "function"
    },
    {
      "inputs": [
        {
          "internalType": "string",
          "name": "_newBaseExtension",
          "type": "string"
        }
      ],
      "name": "setBaseExtension",
      "outputs": [],
      "stateMutability": "nonpayable",
      "type": "function"
    },
    {
      "inputs": [
        {
          "internalType": "string",
          "name": "_notRevealedURI",
          "type": "string"
        }
      ],
      "name": "setNotRevealedURI",
      "outputs": [],
      "stateMutability": "nonpayable",
      "type": "function"
    },
    {
      "inputs": [
        {
          "internalType": "bool",
          "name": "_state",
          "type": "bool"
        }
      ],
      "name": "pause",
      "outputs": [],
      "stateMutability": "nonpayable",
      "type": "function"
    },
    {
      "inputs": [
        {
          "internalType": "bool",
          "name": "_state",
          "type": "bool"
        }
      ],
      "name": "setOnlyWhitelisted",
      "outputs": [],
      "stateMutability": "nonpayable",
      "type": "function"
    },
    {
      "inputs": [
        {
          "internalType": "address[]",
          "name": "_users",
          "type": "address[]"
        }
      ],
      "name": "whitelistUsers",
      "outputs": [],
      "stateMutability": "nonpayable",
      "type": "function"
    },
    {
      "inputs": [
        {
          "internalType": "address[]",
          "name": "_users",
          "type": "address[]"
        }
      ],
      "name": "vipUsers",
      "outputs": [],
      "stateMutability": "nonpayable",
      "type": "function"
    },
    {
      "inputs": [
        {
          "internalType": "uint256[]",
          "name": "_numberofmints",
          "type": "uint256[]"
        }
      ],
      "name": "vipUsersMaxMint",
      "outputs": [],
      "stateMutability": "nonpayable",
      "type": "function"
    },
    {
      "inputs": [],
      "name": "withdraw",
      "outputs": [],
      "stateMutability": "payable",
      "type": "function",
      "payable": true
    }
  ],
  "bytecode": "0x60c06040526005608081905264173539b7b760d91b60a09081526200002891600c91906200021e565b5066f5232269808000600e5561270f600f55600a601081905560115560036012556013805462ffffff1916620100001790553480156200006757600080fd5b50604051620035c5380380620035c58339810160408190526200008a916200036f565b835184908490620000a39060009060208501906200021e565b508051620000b99060019060208401906200021e565b505050620000d6620000d0620000f660201b60201c565b620000fa565b620000e1826200014c565b620000ec81620001b4565b50505050620004ab565b3390565b600a80546001600160a01b038381166001600160a01b0319831681179093556040519116919082907f8be0079c531659141344cd1fd0a4f28419497f9722a3daafe3b4186f6b6457e090600090a35050565b62000156620000f6565b6001600160a01b0316620001696200020f565b6001600160a01b0316146200019b5760405162461bcd60e51b8152600401620001929062000423565b60405180910390fd5b8051620001b090600b9060208401906200021e565b5050565b620001be620000f6565b6001600160a01b0316620001d16200020f565b6001600160a01b031614620001fa5760405162461bcd60e51b8152600401620001929062000423565b8051620001b090600d9060208401906200021e565b600a546001600160a01b031690565b8280546200022c9062000458565b90600052602060002090601f0160209004810192826200025057600085556200029b565b82601f106200026b57805160ff19168380011785556200029b565b828001600101855582156200029b579182015b828111156200029b5782518255916020019190600101906200027e565b50620002a9929150620002ad565b5090565b5b80821115620002a95760008155600101620002ae565b600082601f830112620002d5578081fd5b81516001600160401b0380821115620002f257620002f262000495565b6040516020601f8401601f19168201810183811183821017156200031a576200031a62000495565b604052838252858401810187101562000331578485fd5b8492505b8383101562000354578583018101518284018201529182019162000335565b838311156200036557848185840101525b5095945050505050565b6000806000806080858703121562000385578384fd5b84516001600160401b03808211156200039c578586fd5b620003aa88838901620002c4565b95506020870151915080821115620003c0578485fd5b620003ce88838901620002c4565b94506040870151915080821115620003e4578384fd5b620003f288838901620002c4565b9350606087015191508082111562000408578283fd5b506200041787828801620002c4565b91505092959194509250565b6020808252818101527f4f776e61626c653a2063616c6c6572206973206e6f7420746865206f776e6572604082015260600190565b6002810460018216806200046d57607f821691505b602082108114156200048f57634e487b7160e01b600052602260045260246000fd5b50919050565b634e487b7160e01b600052604160045260246000fd5b61310a80620004bb6000396000f3fe6080604052600436106102ff5760003560e01c80636c0360eb11610190578063c6682862116100dc578063da3ef23f11610095578063eea8a0ed1161006f578063eea8a0ed14610870578063f2c4ce1e14610890578063f2fde38b146108b0578063f4201c3c146108d0576102ff565b8063da3ef23f14610810578063e985e9c514610830578063edec5f2714610850576102ff565b8063c668286214610771578063c87b56dd14610786578063ce357e6d146107a6578063d0eb26b0146107c6578063d58ec9a0146107e6578063d5abeb01146107fb576102ff565b80639c70b51211610149578063a475b5dd11610123578063a475b5dd14610707578063b88d4fde1461071c578063ba4e5c491461073c578063ba7d2c761461075c576102ff565b80639c70b512146106bf578063a0712d68146106d4578063a22cb465146106e7576102ff565b80636c0360eb1461062b57806370a0823114610640578063715018a6146106605780637f00c7a6146106755780638da5cb5b1461069557806395d89b41146106aa576102ff565b8063324ce95c1161024f57806344a0d68a1161020857806355f804b3116101e257806355f804b3146105b65780635c975abb146105d65780636045051a146105eb5780636352211e1461060b576102ff565b806344a0d68a146105615780634f6ccce71461058157806351830227146105a1576102ff565b8063324ce95c146104ac5780633af32abf146104cc5780633c952764146104ec5780633ccfd60b1461050c57806342842e0e14610514578063438b630014610534576102ff565b806313faede6116102bc578063239c70ae11610296578063239c70ae1461043757806323b872dd1461044c57806329080d461461046c5780632f745c591461048c576102ff565b806313faede6146103e057806318160ddd1461040257806318cae26914610417576102ff565b806301ffc9a71461030457806302329a291461033a57806306fdde031461035c578063081812fc1461037e578063081c8c44146103ab578063095ea7b3146103c0575b600080fd5b34801561031057600080fd5b5061032461031f3660046126c3565b6108f0565b60405161033191906128df565b60405180910390f35b34801561034657600080fd5b5061035a6103553660046126a9565b61091d565b005b34801561036857600080fd5b50610371610978565b60405161033191906128ea565b34801561038a57600080fd5b5061039e610399366004612741565b610a0a565b604051610331919061284a565b3480156103b757600080fd5b50610371610a4d565b3480156103cc57600080fd5b5061035a6103db366004612640565b610adb565b3480156103ec57600080fd5b506103f5610b73565b6040516103319190612f6f565b34801561040e57600080fd5b506103f5610b79565b34801561042357600080fd5b506103f5610432366004612517565b610b7f565b34801561044357600080fd5b506103f5610b91565b34801561045857600080fd5b5061035a610467366004612563565b610b97565b34801561047857600080fd5b506103f5610487366004612741565b610bcf565b34801561049857600080fd5b506103f56104a7366004612640565b610bf0565b3480156104b857600080fd5b5061035a6104c7366004612669565b610c42565b3480156104d857600080fd5b506103246104e7366004612517565b610c99565b3480156104f857600080fd5b5061035a6105073660046126a9565b610d82565b61035a610ddd565b34801561052057600080fd5b5061035a61052f366004612563565b610e88565b34801561054057600080fd5b5061055461054f366004612517565b610ea3565b604051610331919061289b565b34801561056d57600080fd5b5061035a61057c366004612741565b610f61565b34801561058d57600080fd5b506103f561059c366004612741565b610fa5565b3480156105ad57600080fd5b50610324611000565b3480156105c257600080fd5b5061035a6105d13660046126fb565b61100e565b3480156105e257600080fd5b50610324611064565b3480156105f757600080fd5b5061039e610606366004612741565b61106d565b34801561061757600080fd5b5061039e610626366004612741565b611097565b34801561063757600080fd5b506103716110cc565b34801561064c57600080fd5b506103f561065b366004612517565b6110d9565b34801561066c57600080fd5b5061035a61111d565b34801561068157600080fd5b5061035a610690366004612741565b611168565b3480156106a157600080fd5b5061039e6111ac565b3480156106b657600080fd5b506103716111bb565b3480156106cb57600080fd5b506103246111ca565b61035a6106e2366004612741565b6111d9565b3480156106f357600080fd5b5061035a610702366004612617565b6113e6565b34801561071357600080fd5b5061035a6114b4565b34801561072857600080fd5b5061035a61073736600461259e565b611504565b34801561074857600080fd5b5061039e610757366004612741565b611543565b34801561076857600080fd5b506103f5611553565b34801561077d57600080fd5b50610371611559565b34801561079257600080fd5b506103716107a1366004612741565b611566565b3480156107b257600080fd5b506103f56107c1366004612517565b61168d565b3480156107d257600080fd5b5061035a6107e1366004612741565b611727565b3480156107f257600080fd5b506103f561176b565b34801561080757600080fd5b506103f5611771565b34801561081c57600080fd5b5061035a61082b3660046126fb565b611777565b34801561083c57600080fd5b5061032461084b366004612531565b6117c9565b34801561085c57600080fd5b5061035a61086b366004612669565b6117f7565b34801561087c57600080fd5b5061035a61088b366004612669565b61184e565b34801561089c57600080fd5b5061035a6108ab3660046126fb565b6118a5565b3480156108bc57600080fd5b5061035a6108cb366004612517565b6118f7565b3480156108dc57600080fd5b506103246108eb366004612517565b611965565b60006001600160e01b0319821663780e9d6360e01b14806109155750610915826119d5565b90505b919050565b610925611a15565b6001600160a01b03166109366111ac565b6001600160a01b0316146109655760405162461bcd60e51b815260040161095c90612cfa565b60405180910390fd5b6013805460ff1916911515919091179055565b60606000805461098790613012565b80601f01602080910402602001604051908101604052809291908181526020018280546109b390613012565b8015610a005780601f106109d557610100808354040283529160200191610a00565b820191906000526020600020905b8154815290600101906020018083116109e357829003601f168201915b5050505050905090565b6000610a1582611a19565b610a315760405162461bcd60e51b815260040161095c90612cae565b506000908152600460205260409020546001600160a01b031690565b600d8054610a5a90613012565b80601f0160208091040260200160405190810160405280929190818152602001828054610a8690613012565b8015610ad35780601f10610aa857610100808354040283529160200191610ad3565b820191906000526020600020905b815481529060010190602001808311610ab657829003601f168201915b505050505081565b6000610ae682611097565b9050806001600160a01b0316836001600160a01b03161415610b1a5760405162461bcd60e51b815260040161095c90612df7565b806001600160a01b0316610b2c611a15565b6001600160a01b03161480610b485750610b488161084b611a15565b610b645760405162461bcd60e51b815260040161095c90612b15565b610b6e8383611a36565b505050565b600e5481565b60085490565b60176020526000908152604090205481565b60105481565b610ba8610ba2611a15565b82611aa4565b610bc45760405162461bcd60e51b815260040161095c90612e64565b610b6e838383611b29565b60168181548110610bdf57600080fd5b600091825260209091200154905081565b6000610bfb836110d9565b8210610c195760405162461bcd60e51b815260040161095c906128fd565b506001600160a01b03919091166000908152600660209081526040808320938352929052205490565b610c4a611a15565b6001600160a01b0316610c5b6111ac565b6001600160a01b031614610c815760405162461bcd60e51b815260040161095c90612cfa565b610c8d601660006122f2565b610b6e60168383612310565b6000805b601454811015610d0957826001600160a01b031660148281548110610cd257634e487b7160e01b600052603260045260246000fd5b6000918252602090912001546001600160a01b03161415610cf7576001915050610918565b80610d018161304d565b915050610c9d565b5060005b601554811015610d7957826001600160a01b031660158281548110610d4257634e487b7160e01b600052603260045260246000fd5b6000918252602090912001546001600160a01b03161415610d67576001915050610918565b80610d718161304d565b915050610d0d565b50600092915050565b610d8a611a15565b6001600160a01b0316610d9b6111ac565b6001600160a01b031614610dc15760405162461bcd60e51b815260040161095c90612cfa565b60138054911515620100000262ff000019909216919091179055565b610de5611a15565b6001600160a01b0316610df66111ac565b6001600160a01b031614610e1c5760405162461bcd60e51b815260040161095c90612cfa565b6000336001600160a01b031647604051610e3590612847565b60006040518083038185875af1925050503d8060008114610e72576040519150601f19603f3d011682016040523d82523d6000602084013e610e77565b606091505b5050905080610e8557600080fd5b50565b610b6e83838360405180602001604052806000815250611504565b60606000610eb0836110d9565b905060008167ffffffffffffffff811115610edb57634e487b7160e01b600052604160045260246000fd5b604051908082528060200260200182016040528015610f04578160200160208202803683370190505b50905060005b82811015610f5957610f1c8582610bf0565b828281518110610f3c57634e487b7160e01b600052603260045260246000fd5b602090810291909101015280610f518161304d565b915050610f0a565b509392505050565b610f69611a15565b6001600160a01b0316610f7a6111ac565b6001600160a01b031614610fa05760405162461bcd60e51b815260040161095c90612cfa565b600e55565b6000610faf610b79565b8210610fcd5760405162461bcd60e51b815260040161095c90612eb5565b60088281548110610fee57634e487b7160e01b600052603260045260246000fd5b90600052602060002001549050919050565b601354610100900460ff1681565b611016611a15565b6001600160a01b03166110276111ac565b6001600160a01b03161461104d5760405162461bcd60e51b815260040161095c90612cfa565b805161106090600b90602084019061235b565b5050565b60135460ff1681565b6015818154811061107d57600080fd5b6000918252602090912001546001600160a01b0316905081565b6000818152600260205260408120546001600160a01b0316806109155760405162461bcd60e51b815260040161095c90612bbc565b600b8054610a5a90613012565b60006001600160a01b0382166111015760405162461bcd60e51b815260040161095c90612b72565b506001600160a01b031660009081526003602052604090205490565b611125611a15565b6001600160a01b03166111366111ac565b6001600160a01b03161461115c5760405162461bcd60e51b815260040161095c90612cfa565b6111666000611c56565b565b611170611a15565b6001600160a01b03166111816111ac565b6001600160a01b0316146111a75760405162461bcd60e51b815260040161095c90612cfa565b601055565b600a546001600160a01b031690565b60606001805461098790613012565b60135462010000900460ff1681565b60135460ff16156111fc5760405162461bcd60e51b815260040161095c90612d2f565b6000611206610b79565b9050600082116112285760405162461bcd60e51b815260040161095c90612f38565b60105482111561124a5760405162461bcd60e51b815260040161095c90612c35565b600f546112578383612f84565b11156112755760405162461bcd60e51b815260040161095c90612c05565b61127d6111ac565b6001600160a01b0316336001600160a01b0316146113965760135462010000900460ff1615156001141561130d576112b433610c99565b6112d05760405162461bcd60e51b815260040161095c90612f01565b336000908152601760205260409020546011546112ed8483612f84565b111561130b5760405162461bcd60e51b815260040161095c90612a17565b505b61131633611965565b156113695760006113263361168d565b33600090815260176020526040902054909150816113448583612f84565b11156113625760405162461bcd60e51b815260040161095c90612a17565b5050611396565b81600e546113779190612fb0565b3410156113965760405162461bcd60e51b815260040161095c90612e38565b60015b828111610b6e573360009081526017602052604081208054916113bb8361304d565b909155506113d49050336113cf8385612f84565b611ca8565b806113de8161304d565b915050611399565b6113ee611a15565b6001600160a01b0316826001600160a01b0316141561141f5760405162461bcd60e51b815260040161095c90612a92565b806005600061142c611a15565b6001600160a01b03908116825260208083019390935260409182016000908120918716808252919093529120805460ff191692151592909217909155611470611a15565b6001600160a01b03167f17307eab39ab6107e8899845ad3d59bd9653f200f220920489ca2b5937696c31836040516114a891906128df565b60405180910390a35050565b6114bc611a15565b6001600160a01b03166114cd6111ac565b6001600160a01b0316146114f35760405162461bcd60e51b815260040161095c90612cfa565b6013805461ff001916610100179055565b61151561150f611a15565b83611aa4565b6115315760405162461bcd60e51b815260040161095c90612e64565b61153d84848484611cc2565b50505050565b6014818154811061107d57600080fd5b60115481565b600c8054610a5a90613012565b606061157182611a19565b61158d5760405162461bcd60e51b815260040161095c90612da8565b601354610100900460ff1661162e57600d80546115a990613012565b80601f01602080910402602001604051908101604052809291908181526020018280546115d590613012565b80156116225780601f106115f757610100808354040283529160200191611622565b820191906000526020600020905b81548152906001019060200180831161160557829003601f168201915b50505050509050610918565b6000611638611cf5565b905060008151116116585760405180602001604052806000815250611686565b8061166284611d04565b600c60405160200161167693929190612785565b6040516020818303038152906040525b9392505050565b6000805b601554811015610d7957826001600160a01b0316601582815481106116c657634e487b7160e01b600052603260045260246000fd5b6000918252602090912001546001600160a01b03161415611715576016818154811061170257634e487b7160e01b600052603260045260246000fd5b9060005260206000200154915050610918565b8061171f8161304d565b915050611691565b61172f611a15565b6001600160a01b03166117406111ac565b6001600160a01b0316146117665760405162461bcd60e51b815260040161095c90612cfa565b601155565b60125481565b600f5481565b61177f611a15565b6001600160a01b03166117906111ac565b6001600160a01b0316146117b65760405162461bcd60e51b815260040161095c90612cfa565b805161106090600c90602084019061235b565b6001600160a01b03918216600090815260056020908152604080832093909416825291909152205460ff1690565b6117ff611a15565b6001600160a01b03166118106111ac565b6001600160a01b0316146118365760405162461bcd60e51b815260040161095c90612cfa565b611842601460006122f2565b610b6e601483836123cf565b611856611a15565b6001600160a01b03166118676111ac565b6001600160a01b03161461188d5760405162461bcd60e51b815260040161095c90612cfa565b611899601560006122f2565b610b6e601583836123cf565b6118ad611a15565b6001600160a01b03166118be6111ac565b6001600160a01b0316146118e45760405162461bcd60e51b815260040161095c90612cfa565b805161106090600d90602084019061235b565b6118ff611a15565b6001600160a01b03166119106111ac565b6001600160a01b0316146119365760405162461bcd60e51b815260040161095c90612cfa565b6001600160a01b03811661195c5760405162461bcd60e51b815260040161095c9061299a565b610e8581611c56565b6000805b601554811015610d7957826001600160a01b03166015828154811061199e57634e487b7160e01b600052603260045260246000fd5b6000918252602090912001546001600160a01b031614156119c3576001915050610918565b806119cd8161304d565b915050611969565b60006001600160e01b031982166380ac58cd60e01b1480611a0657506001600160e01b03198216635b5e139f60e01b145b80610915575061091582611e1f565b3390565b6000908152600260205260409020546001600160a01b0316151590565b600081815260046020526040902080546001600160a01b0319166001600160a01b0384169081179091558190611a6b82611097565b6001600160a01b03167f8c5be1e5ebec7d5bd14f71427d1e84f3dd0314c0f7b2291e5b200ac8c7c3b92560405160405180910390a45050565b6000611aaf82611a19565b611acb5760405162461bcd60e51b815260040161095c90612ac9565b6000611ad683611097565b9050806001600160a01b0316846001600160a01b03161480611b115750836001600160a01b0316611b0684610a0a565b6001600160a01b0316145b80611b215750611b2181856117c9565b949350505050565b826001600160a01b0316611b3c82611097565b6001600160a01b031614611b625760405162461bcd60e51b815260040161095c90612d5f565b6001600160a01b038216611b885760405162461bcd60e51b815260040161095c90612a4e565b611b93838383611e38565b611b9e600082611a36565b6001600160a01b0383166000908152600360205260408120805460019290611bc7908490612fcf565b90915550506001600160a01b0382166000908152600360205260408120805460019290611bf5908490612f84565b909155505060008181526002602052604080822080546001600160a01b0319166001600160a01b0386811691821790925591518493918716917fddf252ad1be2c89b69c2b068fc378daa952ba7f163c4a11628f55a4df523b3ef91a4505050565b600a80546001600160a01b038381166001600160a01b0319831681179093556040519116919082907f8be0079c531659141344cd1fd0a4f28419497f9722a3daafe3b4186f6b6457e090600090a35050565b611060828260405180602001604052806000815250611ec1565b611ccd848484611b29565b611cd984848484611ef4565b61153d5760405162461bcd60e51b815260040161095c90612948565b6060600b805461098790613012565b606081611d2957506040805180820190915260018152600360fc1b6020820152610918565b8160005b8115611d535780611d3d8161304d565b9150611d4c9050600a83612f9c565b9150611d2d565b60008167ffffffffffffffff811115611d7c57634e487b7160e01b600052604160045260246000fd5b6040519080825280601f01601f191660200182016040528015611da6576020820181803683370190505b5090505b8415611b2157611dbb600183612fcf565b9150611dc8600a86613068565b611dd3906030612f84565b60f81b818381518110611df657634e487b7160e01b600052603260045260246000fd5b60200101906001600160f81b031916908160001a905350611e18600a86612f9c565b9450611daa565b6001600160e01b031981166301ffc9a760e01b14919050565b611e43838383610b6e565b6001600160a01b038316611e5f57611e5a8161200f565b611e82565b816001600160a01b0316836001600160a01b031614611e8257611e828382612053565b6001600160a01b038216611e9e57611e99816120f0565b610b6e565b826001600160a01b0316826001600160a01b031614610b6e57610b6e82826121c9565b611ecb838361220d565b611ed86000848484611ef4565b610b6e5760405162461bcd60e51b815260040161095c90612948565b6000611f08846001600160a01b03166122ec565b1561200457836001600160a01b031663150b7a02611f24611a15565b8786866040518563ffffffff1660e01b8152600401611f46949392919061285e565b602060405180830381600087803b158015611f6057600080fd5b505af1925050508015611f90575060408051601f3d908101601f19168201909252611f8d918101906126df565b60015b611fea573d808015611fbe576040519150601f19603f3d011682016040523d82523d6000602084013e611fc3565b606091505b508051611fe25760405162461bcd60e51b815260040161095c90612948565b805181602001fd5b6001600160e01b031916630a85bd0160e11b149050611b21565b506001949350505050565b600880546000838152600960205260408120829055600182018355919091527ff3f7a9fe364faab93b216da50a3214154f22a0a2b415b23a84c8169e8b636ee30155565b60006001612060846110d9565b61206a9190612fcf565b6000838152600760205260409020549091508082146120bd576001600160a01b03841660009081526006602090815260408083208584528252808320548484528184208190558352600790915290208190555b5060009182526007602090815260408084208490556001600160a01b039094168352600681528383209183525290812055565b60085460009061210290600190612fcf565b6000838152600960205260408120546008805493945090928490811061213857634e487b7160e01b600052603260045260246000fd5b90600052602060002001549050806008838154811061216757634e487b7160e01b600052603260045260246000fd5b60009182526020808320909101929092558281526009909152604080822084905585825281205560088054806121ad57634e487b7160e01b600052603160045260246000fd5b6001900381819060005260206000200160009055905550505050565b60006121d4836110d9565b6001600160a01b039093166000908152600660209081526040808320868452825280832085905593825260079052919091209190915550565b6001600160a01b0382166122335760405162461bcd60e51b815260040161095c90612c79565b61223c81611a19565b156122595760405162461bcd60e51b815260040161095c906129e0565b61226560008383611e38565b6001600160a01b038216600090815260036020526040812080546001929061228e908490612f84565b909155505060008181526002602052604080822080546001600160a01b0319166001600160a01b03861690811790915590518392907fddf252ad1be2c89b69c2b068fc378daa952ba7f163c4a11628f55a4df523b3ef908290a45050565b3b151590565b5080546000825590600052602060002090810190610e859190612422565b82805482825590600052602060002090810192821561234b579160200282015b8281111561234b578235825591602001919060010190612330565b50612357929150612422565b5090565b82805461236790613012565b90600052602060002090601f016020900481019282612389576000855561234b565b82601f106123a257805160ff191683800117855561234b565b8280016001018555821561234b579182015b8281111561234b5782518255916020019190600101906123b4565b82805482825590600052602060002090810192821561234b579160200282015b8281111561234b5781546001600160a01b0319166001600160a01b038435161782556020909201916001909101906123ef565b5b808211156123575760008155600101612423565b600067ffffffffffffffff80841115612452576124526130a8565b604051601f8501601f191681016020018281118282101715612476576124766130a8565b60405284815291508183850186101561248e57600080fd5b8484602083013760006020868301015250509392505050565b80356001600160a01b038116811461091857600080fd5b60008083601f8401126124cf578081fd5b50813567ffffffffffffffff8111156124e6578182fd5b602083019150836020808302850101111561250057600080fd5b9250929050565b8035801515811461091857600080fd5b600060208284031215612528578081fd5b611686826124a7565b60008060408385031215612543578081fd5b61254c836124a7565b915061255a602084016124a7565b90509250929050565b600080600060608486031215612577578081fd5b612580846124a7565b925061258e602085016124a7565b9150604084013590509250925092565b600080600080608085870312156125b3578081fd5b6125bc856124a7565b93506125ca602086016124a7565b925060408501359150606085013567ffffffffffffffff8111156125ec578182fd5b8501601f810187136125fc578182fd5b61260b87823560208401612437565b91505092959194509250565b60008060408385031215612629578182fd5b612632836124a7565b915061255a60208401612507565b60008060408385031215612652578182fd5b61265b836124a7565b946020939093013593505050565b6000806020838503121561267b578182fd5b823567ffffffffffffffff811115612691578283fd5b61269d858286016124be565b90969095509350505050565b6000602082840312156126ba578081fd5b61168682612507565b6000602082840312156126d4578081fd5b8135611686816130be565b6000602082840312156126f0578081fd5b8151611686816130be565b60006020828403121561270c578081fd5b813567ffffffffffffffff811115612722578182fd5b8201601f81018413612732578182fd5b611b2184823560208401612437565b600060208284031215612752578081fd5b5035919050565b60008151808452612771816020860160208601612fe6565b601f01601f19169290920160200192915050565b6000845160206127988285838a01612fe6565b8551918401916127ab8184848a01612fe6565b85549201918390600281046001808316806127c757607f831692505b8583108114156127e557634e487b7160e01b88526022600452602488fd5b8080156127f9576001811461280a57612836565b60ff19851688528388019550612836565b6128138b612f78565b895b8581101561282e5781548a820152908401908801612815565b505083880195505b50939b9a5050505050505050505050565b90565b6001600160a01b0391909116815260200190565b6001600160a01b038581168252841660208201526040810183905260806060820181905260009061289190830184612759565b9695505050505050565b6020808252825182820181905260009190848201906040850190845b818110156128d3578351835292840192918401916001016128b7565b50909695505050505050565b901515815260200190565b6000602082526116866020830184612759565b6020808252602b908201527f455243373231456e756d657261626c653a206f776e657220696e646578206f7560408201526a74206f6620626f756e647360a81b606082015260800190565b60208082526032908201527f4552433732313a207472616e7366657220746f206e6f6e20455243373231526560408201527131b2b4bb32b91034b6b83632b6b2b73a32b960711b606082015260800190565b60208082526026908201527f4f776e61626c653a206e6577206f776e657220697320746865207a65726f206160408201526564647265737360d01b606082015260800190565b6020808252601c908201527f4552433732313a20746f6b656e20616c7265616479206d696e74656400000000604082015260600190565b6020808252601c908201527f6d6178204e465420706572206164647265737320657863656564656400000000604082015260600190565b60208082526024908201527f4552433732313a207472616e7366657220746f20746865207a65726f206164646040820152637265737360e01b606082015260800190565b60208082526019908201527f4552433732313a20617070726f766520746f2063616c6c657200000000000000604082015260600190565b6020808252602c908201527f4552433732313a206f70657261746f7220717565727920666f72206e6f6e657860408201526b34b9ba32b73a103a37b5b2b760a11b606082015260800190565b60208082526038908201527f4552433732313a20617070726f76652063616c6c6572206973206e6f74206f7760408201527f6e6572206e6f7220617070726f76656420666f7220616c6c0000000000000000606082015260800190565b6020808252602a908201527f4552433732313a2062616c616e636520717565727920666f7220746865207a65604082015269726f206164647265737360b01b606082015260800190565b60208082526029908201527f4552433732313a206f776e657220717565727920666f72206e6f6e657869737460408201526832b73a103a37b5b2b760b91b606082015260800190565b6020808252601690820152751b585e08139195081b1a5b5a5d08195e18d95959195960521b604082015260600190565b60208082526024908201527f6d6178206d696e7420616d6f756e74207065722073657373696f6e20657863656040820152631959195960e21b606082015260800190565b6020808252818101527f4552433732313a206d696e7420746f20746865207a65726f2061646472657373604082015260600190565b6020808252602c908201527f4552433732313a20617070726f76656420717565727920666f72206e6f6e657860408201526b34b9ba32b73a103a37b5b2b760a11b606082015260800190565b6020808252818101527f4f776e61626c653a2063616c6c6572206973206e6f7420746865206f776e6572604082015260600190565b6020808252601690820152751d1a194818dbdb9d1c9858dd081a5cc81c185d5cd95960521b604082015260600190565b60208082526029908201527f4552433732313a207472616e73666572206f6620746f6b656e2074686174206960408201526839903737ba1037bbb760b91b606082015260800190565b6020808252602f908201527f4552433732314d657461646174613a2055524920717565727920666f72206e6f60408201526e3732bc34b9ba32b73a103a37b5b2b760891b606082015260800190565b60208082526021908201527f4552433732313a20617070726f76616c20746f2063757272656e74206f776e656040820152603960f91b606082015260800190565b602080825260129082015271696e73756666696369656e742066756e647360701b604082015260600190565b60208082526031908201527f4552433732313a207472616e736665722063616c6c6572206973206e6f74206f6040820152701ddb995c881b9bdc88185c1c1c9bdd9959607a1b606082015260800190565b6020808252602c908201527f455243373231456e756d657261626c653a20676c6f62616c20696e646578206f60408201526b7574206f6620626f756e647360a01b606082015260800190565b60208082526017908201527f75736572206973206e6f742077686974656c6973746564000000000000000000604082015260600190565b6020808252601b908201527f6e65656420746f206d696e74206174206c656173742031204e46540000000000604082015260600190565b90815260200190565b60009081526020902090565b60008219821115612f9757612f9761307c565b500190565b600082612fab57612fab613092565b500490565b6000816000190483118215151615612fca57612fca61307c565b500290565b600082821015612fe157612fe161307c565b500390565b60005b83811015613001578181015183820152602001612fe9565b8381111561153d5750506000910152565b60028104600182168061302657607f821691505b6020821081141561304757634e487b7160e01b600052602260045260246000fd5b50919050565b60006000198214156130615761306161307c565b5060010190565b60008261307757613077613092565b500690565b634e487b7160e01b600052601160045260246000fd5b634e487b7160e01b600052601260045260246000fd5b634e487b7160e01b600052604160045260246000fd5b6001600160e01b031981168114610e8557600080fdfea264697066735822122062e1478370d9f0e4e1f7f5cd77c8fa1e4cc119d9c902b50f2f8d0e379353deb564736f6c63430008000033",
  "immutableReferences": {},
  "source": "// SPDX-License-Identifier: GPL-3.0\n\npragma solidity >=0.7.0 <0.9.0;\n\nimport \"@openzeppelin/contracts/token/ERC721/extensions/ERC721Enumerable.sol\";\nimport \"@openzeppelin/contracts/access/Ownable.sol\";\n\ncontract SmartContract is ERC721Enumerable, Ownable {\n  using Strings for uint256;\n\n  string public baseURI;\n  string public baseExtension = \".json\";\n  string public notRevealedUri;\n  uint256 public cost = 0.069 ether;\n  uint256 public maxSupply = 9999;\n  uint256 public maxMintAmount = 10;\n  uint256 public nftPerAddressLimit = 10;\n  uint256 public nftPerAddressLimitPreMint = 3;\n  bool public paused = false;\n  bool public revealed = false;\n  bool public onlyWhitelisted = true;\n  address[] public whitelistedAddresses;\n  address[] public vipAddresses;\n  uint256[] public vipMaxMinted;\n  mapping(address => uint256) public addressMintedBalance;\n\n\n  constructor(\n    string memory _name,\n    string memory _symbol,\n    string memory _initBaseURI,\n    string memory _initNotRevealedUri\n  ) ERC721(_name, _symbol) {\n    setBaseURI(_initBaseURI);\n    setNotRevealedURI(_initNotRevealedUri);\n  }\n\n  // internal\n  function _baseURI() internal view virtual override returns (string memory) {\n    return baseURI;\n  }\n\n  // public\n  function mint(uint256 _mintAmount) public payable {\n    require(!paused, \"the contract is paused\");\n    uint256 supply = totalSupply();\n    require(_mintAmount > 0, \"need to mint at least 1 NFT\");\n    require(_mintAmount <= maxMintAmount, \"max mint amount per session exceeded\");\n    require(supply + _mintAmount <= maxSupply, \"max NFT limit exceeded\");\n\n    if (msg.sender != owner()) {\n        if(onlyWhitelisted == true) {\n            require(isWhitelisted(msg.sender), \"user is not whitelisted\");\n            uint256 ownerMintedCount = addressMintedBalance[msg.sender];\n            require(ownerMintedCount + _mintAmount <= nftPerAddressLimit, \"max NFT per address exceeded\");\n        }\n        if(isVIP(msg.sender))\n        {\n          uint256 vipMintAmount = vipMintAmount(msg.sender);\n          uint256 ownerMintedCount = addressMintedBalance[msg.sender];\n          require(ownerMintedCount + _mintAmount <=  vipMintAmount, \"max NFT per address exceeded\");\n        }\n        else\n        {\n          require(msg.value >= cost * _mintAmount, \"insufficient funds\");\n        }\n\n    }\n    \n\n    for (uint256 i = 1; i <= _mintAmount; i++) {\n        addressMintedBalance[msg.sender]++;\n      _safeMint(msg.sender, supply + i);\n    }\n    \n  }\n  \n  function isWhitelisted(address _user) public view returns (bool) {\n    for (uint i = 0; i < whitelistedAddresses.length; i++) {\n      if (whitelistedAddresses[i] == _user) {\n          return true;\n      }\n    }\n    for (uint i = 0; i < vipAddresses.length; i++) {\n      if (vipAddresses[i] == _user) {\n          return true;\n      }\n    }\n    return false;\n  }\n\n    function isVIP(address _user) public view returns (bool) {\n    for (uint i = 0; i < vipAddresses.length; i++) {\n      if (vipAddresses[i] == _user) {\n          return true;\n      }\n    }\n    return false;\n  }\n\n  function vipMintAmount(address _user) public view returns(uint256){\n    for (uint i = 0; i < vipAddresses.length; i++) {\n      if (vipAddresses[i] == _user) { \n          return vipMaxMinted[i];\n      }\n    }\n    return 0;\n  }\n                 \n  function walletOfOwner(address _owner)\n    public\n    view\n    returns (uint256[] memory)\n  {\n    uint256 ownerTokenCount = balanceOf(_owner);\n    uint256[] memory tokenIds = new uint256[](ownerTokenCount);\n    for (uint256 i; i < ownerTokenCount; i++) {\n      tokenIds[i] = tokenOfOwnerByIndex(_owner, i);\n    }\n    return tokenIds;\n  }\n\n  function tokenURI(uint256 tokenId)\n    public\n    view\n    virtual\n    override\n    returns (string memory)\n  {\n    require(\n      _exists(tokenId),\n      \"ERC721Metadata: URI query for nonexistent token\"\n    );\n    \n    if(revealed == false) {\n        return notRevealedUri;\n    }\n\n    string memory currentBaseURI = _baseURI();\n    return bytes(currentBaseURI).length > 0\n        ? string(abi.encodePacked(currentBaseURI, tokenId.toString(), baseExtension))\n        : \"\";\n  }\n\n  //only owner\n  function reveal() public onlyOwner() {\n      revealed = true;\n  }\n  \n  function setNftPerAddressLimit(uint256 _limit) public onlyOwner() {\n    nftPerAddressLimit = _limit;\n  }\n  \n  function setCost(uint256 _newCost) public onlyOwner() {\n    cost = _newCost;\n  }\n\n  function setmaxMintAmount(uint256 _newmaxMintAmount) public onlyOwner() {\n    maxMintAmount = _newmaxMintAmount;\n  }\n\n  function setBaseURI(string memory _newBaseURI) public onlyOwner {\n    baseURI = _newBaseURI;\n  }\n\n  function setBaseExtension(string memory _newBaseExtension) public onlyOwner {\n    baseExtension = _newBaseExtension;\n  }\n  \n  function setNotRevealedURI(string memory _notRevealedURI) public onlyOwner {\n    notRevealedUri = _notRevealedURI;\n  }\n\n  function pause(bool _state) public onlyOwner {\n    paused = _state;\n  }\n  \n  function setOnlyWhitelisted(bool _state) public onlyOwner {\n    onlyWhitelisted = _state;\n  }\n  \n  function whitelistUsers(address[] calldata _users) public onlyOwner {\n    delete whitelistedAddresses;\n    whitelistedAddresses = _users;\n  }\n  \nfunction vipUsers(address[] calldata _users) public onlyOwner {\n    delete vipAddresses;\n    vipAddresses = _users;\n  }\n  \n  function vipUsersMaxMint(uint256[] calldata _numberofmints) public onlyOwner {\n    delete vipMaxMinted;\n    vipMaxMinted = _numberofmints;\n  }\n \n  function withdraw() public payable onlyOwner {\n    (bool success, ) = payable(msg.sender).call{value: address(this).balance}(\"\");\n    require(success);\n  }\n}\n",
  "sourcePath": "C:\\Users\\deon\\Documents\\GitHub\\rickfcks\\contracts\\SmartContract.sol",
  "compiler": {
    "name": "solc",
    "version": "0.8.0+commit.c7dfd78e.Emscripten.clang"
  },
  "schemaVersion": "3.4.3",
  "updatedAt": "2021-10-19T21:48:37.403Z",
  "networkType": "ethereum",
  "devdoc": {
    "kind": "dev",
    "methods": {
      "approve(address,uint256)": {
        "details": "See {IERC721-approve}."
      },
      "balanceOf(address)": {
        "details": "See {IERC721-balanceOf}."
      },
      "getApproved(uint256)": {
        "details": "See {IERC721-getApproved}."
      },
      "isApprovedForAll(address,address)": {
        "details": "See {IERC721-isApprovedForAll}."
      },
      "name()": {
        "details": "See {IERC721Metadata-name}."
      },
      "owner()": {
        "details": "Returns the address of the current owner."
      },
      "ownerOf(uint256)": {
        "details": "See {IERC721-ownerOf}."
      },
      "renounceOwnership()": {
        "details": "Leaves the contract without owner. It will not be possible to call `onlyOwner` functions anymore. Can only be called by the current owner. NOTE: Renouncing ownership will leave the contract without an owner, thereby removing any functionality that is only available to the owner."
      },
      "safeTransferFrom(address,address,uint256)": {
        "details": "See {IERC721-safeTransferFrom}."
      },
      "safeTransferFrom(address,address,uint256,bytes)": {
        "details": "See {IERC721-safeTransferFrom}."
      },
      "setApprovalForAll(address,bool)": {
        "details": "See {IERC721-setApprovalForAll}."
      },
      "supportsInterface(bytes4)": {
        "details": "See {IERC165-supportsInterface}."
      },
      "symbol()": {
        "details": "See {IERC721Metadata-symbol}."
      },
      "tokenByIndex(uint256)": {
        "details": "See {IERC721Enumerable-tokenByIndex}."
      },
      "tokenOfOwnerByIndex(address,uint256)": {
        "details": "See {IERC721Enumerable-tokenOfOwnerByIndex}."
      },
      "tokenURI(uint256)": {
        "details": "See {IERC721Metadata-tokenURI}."
      },
      "totalSupply()": {
        "details": "See {IERC721Enumerable-totalSupply}."
      },
      "transferFrom(address,address,uint256)": {
        "details": "See {IERC721-transferFrom}."
      },
      "transferOwnership(address)": {
        "details": "Transfers ownership of the contract to a new account (`newOwner`). Can only be called by the current owner."
      }
    },
    "version": 1
  },
  "userdoc": {
    "kind": "user",
    "methods": {},
    "version": 1
  }
}